{
  "_format": "hh-sol-artifact-1",
  "contractName": "Project",
  "sourceName": "contracts/Project.sol",
  "abi": [
    {
      "inputs": [
        {
          "internalType": "address",
          "name": "_creator",
          "type": "address"
        },
        {
          "internalType": "uint256",
          "name": "_minimumContribution",
          "type": "uint256"
        },
        {
          "internalType": "uint256",
          "name": "_deadline",
          "type": "uint256"
        },
        {
          "internalType": "uint256",
          "name": "_targetContribution",
          "type": "uint256"
        },
        {
          "internalType": "string",
          "name": "_projectTitle",
          "type": "string"
        },
        {
          "internalType": "string",
          "name": "_projectDes",
          "type": "string"
        }
      ],
      "stateMutability": "nonpayable",
      "type": "constructor"
    },
    {
      "anonymous": false,
      "inputs": [
        {
          "indexed": false,
          "internalType": "uint256",
          "name": "requestId",
          "type": "uint256"
        },
        {
          "indexed": false,
          "internalType": "string",
          "name": "description",
          "type": "string"
        },
        {
          "indexed": false,
          "internalType": "uint256",
          "name": "amount",
          "type": "uint256"
        },
        {
          "indexed": false,
          "internalType": "uint256",
          "name": "noOfVotes",
          "type": "uint256"
        },
        {
          "indexed": false,
          "internalType": "bool",
          "name": "isCompleted",
          "type": "bool"
        },
        {
          "indexed": false,
          "internalType": "address",
          "name": "reciptent",
          "type": "address"
        }
      ],
      "name": "AmountWithdrawSuccessful",
      "type": "event"
    },
    {
      "anonymous": false,
      "inputs": [
        {
          "indexed": false,
          "internalType": "address",
          "name": "contributor",
          "type": "address"
        },
        {
          "indexed": false,
          "internalType": "enum Project.State",
          "name": "state",
          "type": "uint8"
        }
      ],
      "name": "Expired",
      "type": "event"
    },
    {
      "anonymous": false,
      "inputs": [
        {
          "indexed": false,
          "internalType": "address",
          "name": "contributor",
          "type": "address"
        },
        {
          "indexed": false,
          "internalType": "uint256",
          "name": "amount",
          "type": "uint256"
        },
        {
          "indexed": false,
          "internalType": "uint256",
          "name": "currentTotal",
          "type": "uint256"
        }
      ],
      "name": "FundingReceived",
      "type": "event"
    },
    {
      "anonymous": false,
      "inputs": [
        {
          "indexed": false,
          "internalType": "uint256",
          "name": "requestId",
          "type": "uint256"
        },
        {
          "indexed": false,
          "internalType": "string",
          "name": "description",
          "type": "string"
        },
        {
          "indexed": false,
          "internalType": "uint256",
          "name": "amount",
          "type": "uint256"
        },
        {
          "indexed": false,
          "internalType": "uint256",
          "name": "noOfVotes",
          "type": "uint256"
        },
        {
          "indexed": false,
          "internalType": "bool",
          "name": "isCompleted",
          "type": "bool"
        },
        {
          "indexed": false,
          "internalType": "address",
          "name": "reciptent",
          "type": "address"
        }
      ],
      "name": "WithdrawRequestCreated",
      "type": "event"
    },
    {
      "anonymous": false,
      "inputs": [
        {
          "indexed": false,
          "internalType": "address",
          "name": "voter",
          "type": "address"
        },
        {
          "indexed": false,
          "internalType": "uint256",
          "name": "totalVote",
          "type": "uint256"
        }
      ],
      "name": "WithdrawVote",
      "type": "event"
    },
    {
      "inputs": [],
      "name": "completeAt",
      "outputs": [
        {
          "internalType": "uint256",
          "name": "",
          "type": "uint256"
        }
      ],
      "stateMutability": "view",
      "type": "function"
    },
    {
      "inputs": [
        {
          "internalType": "address",
          "name": "_contributor",
          "type": "address"
        }
      ],
      "name": "contribute",
      "outputs": [],
      "stateMutability": "payable",
      "type": "function"
    },
    {
      "inputs": [
        {
          "internalType": "address",
          "name": "",
          "type": "address"
        }
      ],
      "name": "contributiors",
      "outputs": [
        {
          "internalType": "uint256",
          "name": "",
          "type": "uint256"
        }
      ],
      "stateMutability": "view",
      "type": "function"
    },
    {
      "inputs": [
        {
          "internalType": "string",
          "name": "_description",
          "type": "string"
        },
        {
          "internalType": "uint256",
          "name": "_amount",
          "type": "uint256"
        },
        {
          "internalType": "address payable",
          "name": "_reciptent",
          "type": "address"
        }
      ],
      "name": "createWithdrawRequest",
      "outputs": [],
      "stateMutability": "nonpayable",
      "type": "function"
    },
    {
      "inputs": [],
      "name": "creator",
      "outputs": [
        {
          "internalType": "address payable",
          "name": "",
          "type": "address"
        }
      ],
      "stateMutability": "view",
      "type": "function"
    },
    {
      "inputs": [],
      "name": "deadline",
      "outputs": [
        {
          "internalType": "uint256",
          "name": "",
          "type": "uint256"
        }
      ],
      "stateMutability": "view",
      "type": "function"
    },
    {
      "inputs": [],
      "name": "getContractBalance",
      "outputs": [
        {
          "internalType": "uint256",
          "name": "",
          "type": "uint256"
        }
      ],
      "stateMutability": "view",
      "type": "function"
    },
    {
      "inputs": [],
      "name": "getProjectDetails",
      "outputs": [
        {
          "internalType": "address payable",
          "name": "projectStarter",
          "type": "address"
        },
        {
          "internalType": "uint256",
          "name": "minContribution",
          "type": "uint256"
        },
        {
          "internalType": "uint256",
          "name": "projectDeadline",
          "type": "uint256"
        },
        {
          "internalType": "uint256",
          "name": "goalAmount",
          "type": "uint256"
        },
        {
          "internalType": "uint256",
          "name": "completedTime",
          "type": "uint256"
        },
        {
          "internalType": "uint256",
          "name": "currentAmount",
          "type": "uint256"
        },
        {
          "internalType": "string",
          "name": "title",
          "type": "string"
        },
        {
          "internalType": "string",
          "name": "desc",
          "type": "string"
        },
        {
          "internalType": "enum Project.State",
          "name": "currentState",
          "type": "uint8"
        },
        {
          "internalType": "uint256",
          "name": "balance",
          "type": "uint256"
        }
      ],
      "stateMutability": "view",
      "type": "function"
    },
    {
      "inputs": [],
      "name": "minimumContribution",
      "outputs": [
        {
          "internalType": "uint256",
          "name": "",
          "type": "uint256"
        }
      ],
      "stateMutability": "view",
      "type": "function"
    },
    {
      "inputs": [],
      "name": "noOfContributers",
      "outputs": [
        {
          "internalType": "uint256",
          "name": "",
          "type": "uint256"
        }
      ],
      "stateMutability": "view",
      "type": "function"
    },
    {
      "inputs": [],
      "name": "numOfWithdrawRequests",
      "outputs": [
        {
          "internalType": "uint256",
          "name": "",
          "type": "uint256"
        }
      ],
      "stateMutability": "view",
      "type": "function"
    },
    {
      "inputs": [],
      "name": "projectDes",
      "outputs": [
        {
          "internalType": "string",
          "name": "",
          "type": "string"
        }
      ],
      "stateMutability": "view",
      "type": "function"
    },
    {
      "inputs": [],
      "name": "projectTitle",
      "outputs": [
        {
          "internalType": "string",
          "name": "",
          "type": "string"
        }
      ],
      "stateMutability": "view",
      "type": "function"
    },
    {
      "inputs": [],
      "name": "raisedAmount",
      "outputs": [
        {
          "internalType": "uint256",
          "name": "",
          "type": "uint256"
        }
      ],
      "stateMutability": "view",
      "type": "function"
    },
    {
      "inputs": [],
      "name": "setStateExpired",
      "outputs": [],
      "stateMutability": "nonpayable",
      "type": "function"
    },
    {
      "inputs": [],
      "name": "state",
      "outputs": [
        {
          "internalType": "enum Project.State",
          "name": "",
          "type": "uint8"
        }
      ],
      "stateMutability": "view",
      "type": "function"
    },
    {
      "inputs": [],
      "name": "targetContribution",
      "outputs": [
        {
          "internalType": "uint256",
          "name": "",
          "type": "uint256"
        }
      ],
      "stateMutability": "view",
      "type": "function"
    },
    {
      "inputs": [
        {
          "internalType": "uint256",
          "name": "_requestId",
          "type": "uint256"
        }
      ],
      "name": "voteWithdrawRequest",
      "outputs": [],
      "stateMutability": "nonpayable",
      "type": "function"
    },
    {
      "inputs": [
        {
          "internalType": "uint256",
          "name": "_requestId",
          "type": "uint256"
        }
      ],
      "name": "withdrawRequestedAmount",
      "outputs": [],
      "stateMutability": "nonpayable",
      "type": "function"
    },
    {
      "inputs": [
        {
          "internalType": "uint256",
          "name": "",
          "type": "uint256"
        }
      ],
      "name": "withdrawRequests",
      "outputs": [
        {
          "internalType": "string",
          "name": "description",
          "type": "string"
        },
        {
          "internalType": "uint256",
          "name": "amount",
          "type": "uint256"
        },
        {
          "internalType": "uint256",
          "name": "noOfVotes",
          "type": "uint256"
        },
        {
          "internalType": "bool",
          "name": "isCompleted",
          "type": "bool"
        },
        {
          "internalType": "address payable",
          "name": "reciptent",
          "type": "address"
        }
      ],
      "stateMutability": "view",
      "type": "function"
    }
  ],
  "bytecode": "0x60806040526000600960006101000a81548160ff0219169083600281111562000051577f4e487b7100000000000000000000000000000000000000000000000000000000600052602160045260246000fd5b02179055506000600c556103e8426200006b9190620003b3565b600d553480156200007b57600080fd5b506040516200238f3803806200238f8339818101604052810190620000a191906200028c565b856000806101000a81548173ffffffffffffffffffffffffffffffffffffffff021916908373ffffffffffffffffffffffffffffffffffffffff16021790555084600181905550836002819055508260038190555081600790805190602001906200010e9291906200013c565b508060089080519060200190620001279291906200013c565b506000600581905550505050505050620005c6565b8280546200014a9062000488565b90600052602060002090601f0160209004810192826200016e5760008555620001ba565b82601f106200018957805160ff1916838001178555620001ba565b82800160010185558215620001ba579182015b82811115620001b95782518255916020019190600101906200019c565b5b509050620001c99190620001cd565b5090565b5b80821115620001e8576000816000905550600101620001ce565b5090565b600062000203620001fd846200037d565b62000354565b9050828152602081018484840111156200021c57600080fd5b6200022984828562000452565b509392505050565b600081519050620002428162000592565b92915050565b600082601f8301126200025a57600080fd5b81516200026c848260208601620001ec565b91505092915050565b6000815190506200028681620005ac565b92915050565b60008060008060008060c08789031215620002a657600080fd5b6000620002b689828a0162000231565b9650506020620002c989828a0162000275565b9550506040620002dc89828a0162000275565b9450506060620002ef89828a0162000275565b935050608087015167ffffffffffffffff8111156200030d57600080fd5b6200031b89828a0162000248565b92505060a087015167ffffffffffffffff8111156200033957600080fd5b6200034789828a0162000248565b9150509295509295509295565b60006200036062000373565b90506200036e8282620004be565b919050565b6000604051905090565b600067ffffffffffffffff8211156200039b576200039a62000552565b5b620003a68262000581565b9050602081019050919050565b6000620003c08262000448565b9150620003cd8362000448565b9250817fffffffffffffffffffffffffffffffffffffffffffffffffffffffffffffffff0483118215151615620004095762000408620004f4565b5b828202905092915050565b6000620004218262000428565b9050919050565b600073ffffffffffffffffffffffffffffffffffffffff82169050919050565b6000819050919050565b60005b838110156200047257808201518184015260208101905062000455565b8381111562000482576000848401525b50505050565b60006002820490506001821680620004a157607f821691505b60208210811415620004b857620004b762000523565b5b50919050565b620004c98262000581565b810181811067ffffffffffffffff82111715620004eb57620004ea62000552565b5b80604052505050565b7f4e487b7100000000000000000000000000000000000000000000000000000000600052601160045260246000fd5b7f4e487b7100000000000000000000000000000000000000000000000000000000600052602260045260246000fd5b7f4e487b7100000000000000000000000000000000000000000000000000000000600052604160045260246000fd5b6000601f19601f8301169050919050565b6200059d8162000414565b8114620005a957600080fd5b50565b620005b78162000448565b8114620005c357600080fd5b50565b611db980620005d66000396000f3fe60806040526004361061011f5760003560e01c8063937e09b1116100a0578063c19d93fb11610064578063c19d93fb146103bc578063c3e20c9f146103e7578063c59ee1dc14610412578063e85001e81461043d578063ff3a9c7e146104545761011f565b8063937e09b1146102d1578063992a7dfb146102fc578063a46752ae1461033d578063b40141bf14610366578063b82c86d6146103915761011f565b80634c4cea5a116100e75780634c4cea5a1461020d5780634e695a37146102385780636f9fb98a1461026157806373e888fd1461028c578063752e19f9146102a85761011f565b806302d05d3f1461012457806303c29d581461014f5780630a7713701461017a57806324274ee9146101b757806329dcb0cf146101e2575b600080fd5b34801561013057600080fd5b50610139610488565b604051610146919061150b565b60405180910390f35b34801561015b57600080fd5b506101646104ac565b604051610171919061164b565b60405180910390f35b34801561018657600080fd5b506101a1600480360381019061019c9190611281565b61053a565b6040516101ae9190611767565b60405180910390f35b3480156101c357600080fd5b506101cc610552565b6040516101d99190611767565b60405180910390f35b3480156101ee57600080fd5b506101f7610558565b6040516102049190611767565b60405180910390f35b34801561021957600080fd5b5061022261055e565b60405161022f9190611767565b60405180910390f35b34801561024457600080fd5b5061025f600480360381019061025a9190611311565b610564565b005b34801561026d57600080fd5b50610276610749565b6040516102839190611767565b60405180910390f35b6102a660048036038101906102a19190611281565b610751565b005b3480156102b457600080fd5b506102cf60048036038101906102ca9190611311565b6108f1565b005b3480156102dd57600080fd5b506102e6610b56565b6040516102f39190611767565b60405180910390f35b34801561030857600080fd5b50610323600480360381019061031e9190611311565b610b5c565b60405161033495949392919061166d565b60405180910390f35b34801561034957600080fd5b50610364600480360381019061035f91906112aa565b610c47565b005b34801561037257600080fd5b5061037b610de4565b6040516103889190611767565b60405180910390f35b34801561039d57600080fd5b506103a6610dea565b6040516103b39190611767565b60405180910390f35b3480156103c857600080fd5b506103d1610df0565b6040516103de9190611630565b60405180910390f35b3480156103f357600080fd5b506103fc610e03565b604051610409919061164b565b60405180910390f35b34801561041e57600080fd5b50610427610e91565b6040516104349190611767565b60405180910390f35b34801561044957600080fd5b50610452610e97565b005b34801561046057600080fd5b50610469610eea565b60405161047f9a99989796959493929190611526565b60405180910390f35b60008054906101000a900473ffffffffffffffffffffffffffffffffffffffff1681565b600880546104b990611a69565b80601f01602080910402602001604051908101604052809291908181526020018280546104e590611a69565b80156105325780601f1061050757610100808354040283529160200191610532565b820191906000526020600020905b81548152906001019060200180831161051557829003601f168201915b505050505081565b600a6020528060005260406000206000915090505481565b60065481565b60025481565b60045481565b6000600a60003373ffffffffffffffffffffffffffffffffffffffff1673ffffffffffffffffffffffffffffffffffffffff16815260200190815260200160002054116105e6576040517f08c379a00000000000000000000000000000000000000000000000000000000081526004016105dd906116c7565b60405180910390fd5b6000600b60008381526020019081526020016000209050600015158160030160003373ffffffffffffffffffffffffffffffffffffffff1673ffffffffffffffffffffffffffffffffffffffff16815260200190815260200160002060009054906101000a900460ff16151514610692576040517f08c379a000000000000000000000000000000000000000000000000000000000815260040161068990611707565b60405180910390fd5b60018160030160003373ffffffffffffffffffffffffffffffffffffffff1673ffffffffffffffffffffffffffffffffffffffff16815260200190815260200160002060006101000a81548160ff021916908315150217905550600181600201600082825461070191906118d9565b925050819055507fa2925e4595bf873fa82c22a1a89809777347023bf2b502d32710157a5eb8199c33826002015460405161073d9291906115d0565b60405180910390a15050565b600047905090565b6001600281111561078b577f4e487b7100000000000000000000000000000000000000000000000000000000600052602160045260246000fd5b600960009054906101000a900460ff1660028111156107d3577f4e487b7100000000000000000000000000000000000000000000000000000000600052602160045260246000fd5b146108ee576000600a60008373ffffffffffffffffffffffffffffffffffffffff1673ffffffffffffffffffffffffffffffffffffffff168152602001908152602001600020541415610839576006600081548092919061083390611acc565b91905055505b34600a60008373ffffffffffffffffffffffffffffffffffffffff1673ffffffffffffffffffffffffffffffffffffffff168152602001908152602001600020600082825461088891906118d9565b9250508190555034600560008282546108a191906118d9565b925050819055507f5cdc4ab8d637538ead6cc1904d4160343656c8c82bd266635cfd31ac008fffe081346005546040516108dd939291906115f9565b60405180910390a16108ed611070565b5b50565b60008054906101000a900473ffffffffffffffffffffffffffffffffffffffff1673ffffffffffffffffffffffffffffffffffffffff163373ffffffffffffffffffffffffffffffffffffffff161461097f576040517f08c379a0000000000000000000000000000000000000000000000000000000008152600401610976906116e7565b60405180910390fd5b6000600b60008381526020019081526020016000209050600015158160040160009054906101000a900460ff161515146109ee576040517f08c379a00000000000000000000000000000000000000000000000000000000081526004016109e590611727565b60405180910390fd5b600060016002600654610a01919061192f565b610a0b91906118d9565b90508082600201541015610a54576040517f08c379a0000000000000000000000000000000000000000000000000000000008152600401610a4b90611747565b60405180910390fd5b8160040160019054906101000a900473ffffffffffffffffffffffffffffffffffffffff1673ffffffffffffffffffffffffffffffffffffffff166108fc83600101549081150290604051600060405180830381858888f19350505050158015610ac2573d6000803e3d6000fd5b5060018260040160006101000a81548160ff0219169083151502179055507f2af8d60b878c5e8de57c8ff96e03c6cfab6de26b47e989757345cc1dceaac99883836000018460010154856002015460018760040160019054906101000a900473ffffffffffffffffffffffffffffffffffffffff16604051610b49969594939291906117ea565b60405180910390a1505050565b60015481565b600b602052806000526040600020600091509050806000018054610b7f90611a69565b80601f0160208091040260200160405190810160405280929190818152602001828054610bab90611a69565b8015610bf85780601f10610bcd57610100808354040283529160200191610bf8565b820191906000526020600020905b815481529060010190602001808311610bdb57829003601f168201915b5050505050908060010154908060020154908060040160009054906101000a900460ff16908060040160019054906101000a900473ffffffffffffffffffffffffffffffffffffffff16905085565b60008054906101000a900473ffffffffffffffffffffffffffffffffffffffff1673ffffffffffffffffffffffffffffffffffffffff163373ffffffffffffffffffffffffffffffffffffffff1614610cd5576040517f08c379a0000000000000000000000000000000000000000000000000000000008152600401610ccc906116e7565b60405180910390fd5b6000600b6000600c5481526020019081526020016000209050600c6000815480929190610d0190611acc565b919050555083816000019080519060200190610d1e929190611137565b508281600101819055506000816002018190555060008160040160006101000a81548160ff021916908315150217905550818160040160016101000a81548173ffffffffffffffffffffffffffffffffffffffff021916908373ffffffffffffffffffffffffffffffffffffffff1602179055507f9883a4e4f8698e4cc93bafb8d0d2376cb8c51dd322cb9fd80d02c691fcdea503600c54858560008087604051610dce96959493929190611782565b60405180910390a1610dde611070565b50505050565b600c5481565b60035481565b600960009054906101000a900460ff1681565b60078054610e1090611a69565b80601f0160208091040260200160405190810160405280929190818152602001828054610e3c90611a69565b8015610e895780601f10610e5e57610100808354040283529160200191610e89565b820191906000526020600020905b815481529060010190602001808311610e6c57829003601f168201915b505050505081565b60055481565b6001600960006101000a81548160ff02191690836002811115610ee3577f4e487b7100000000000000000000000000000000000000000000000000000000600052602160045260246000fd5b0217905550565b60008060008060008060608060008060008054906101000a900473ffffffffffffffffffffffffffffffffffffffff1699506001549850600254975060035496506004549550600554945060078054610f4290611a69565b80601f0160208091040260200160405190810160405280929190818152602001828054610f6e90611a69565b8015610fbb5780601f10610f9057610100808354040283529160200191610fbb565b820191906000526020600020905b815481529060010190602001808311610f9e57829003601f168201915b5050505050935060088054610fcf90611a69565b80601f0160208091040260200160405190810160405280929190818152602001828054610ffb90611a69565b80156110485780601f1061101d57610100808354040283529160200191611048565b820191906000526020600020905b81548152906001019060200180831161102b57829003601f168201915b50505050509250600960009054906101000a900460ff16915047905090919293949596979899565b600354600554106110d1576002600960006101000a81548160ff021916908360028111156110c7577f4e487b7100000000000000000000000000000000000000000000000000000000600052602160045260246000fd5b021790555061112e565b60025442111561112d576001600960006101000a81548160ff02191690836002811115611127577f4e487b7100000000000000000000000000000000000000000000000000000000600052602160045260246000fd5b02179055505b5b42600481905550565b82805461114390611a69565b90600052602060002090601f01602090048101928261116557600085556111ac565b82601f1061117e57805160ff19168380011785556111ac565b828001600101855582156111ac579182015b828111156111ab578251825591602001919060010190611190565b5b5090506111b991906111bd565b5090565b5b808211156111d65760008160009055506001016111be565b5090565b60006111ed6111e884611877565b611852565b90508281526020810184848401111561120557600080fd5b611210848285611a27565b509392505050565b60008135905061122781611d3e565b92915050565b60008135905061123c81611d55565b92915050565b600082601f83011261125357600080fd5b81356112638482602086016111da565b91505092915050565b60008135905061127b81611d6c565b92915050565b60006020828403121561129357600080fd5b60006112a184828501611218565b91505092915050565b6000806000606084860312156112bf57600080fd5b600084013567ffffffffffffffff8111156112d957600080fd5b6112e586828701611242565b93505060206112f68682870161126c565b92505060406113078682870161122d565b9150509250925092565b60006020828403121561132357600080fd5b60006113318482850161126c565b91505092915050565b611343816119cd565b82525050565b61135281611972565b82525050565b61136181611960565b82525050565b61137081611984565b82525050565b61137f816119df565b82525050565b61138e816119f1565b82525050565b600061139f826118bd565b6113a981856118c8565b93506113b9818560208601611a36565b6113c281611c00565b840191505092915050565b600081546113da81611a69565b6113e481866118c8565b945060018216600081146113ff576001811461141157611444565b60ff1983168652602086019350611444565b61141a856118a8565b60005b8381101561143c5781548189015260018201915060208101905061141d565b808801955050505b50505092915050565b600061145a601b836118c8565b915061146582611c11565b602082019050919050565b600061147d6030836118c8565b915061148882611c3a565b604082019050919050565b60006114a06013836118c8565b91506114ab82611c89565b602082019050919050565b60006114c36019836118c8565b91506114ce82611cb2565b602082019050919050565b60006114e66023836118c8565b91506114f182611cdb565b604082019050919050565b611505816119c3565b82525050565b60006020820190506115206000830184611349565b92915050565b60006101408201905061153c600083018d611349565b611549602083018c6114fc565b611556604083018b6114fc565b611563606083018a6114fc565b61157060808301896114fc565b61157d60a08301886114fc565b81810360c083015261158f8187611394565b905081810360e08301526115a38186611394565b90506115b3610100830185611376565b6115c16101208301846114fc565b9b9a5050505050505050505050565b60006040820190506115e56000830185611358565b6115f260208301846114fc565b9392505050565b600060608201905061160e6000830186611358565b61161b60208301856114fc565b61162860408301846114fc565b949350505050565b60006020820190506116456000830184611376565b92915050565b600060208201905081810360008301526116658184611394565b905092915050565b600060a08201905081810360008301526116878188611394565b905061169660208301876114fc565b6116a360408301866114fc565b6116b06060830185611367565b6116bd6080830184611349565b9695505050505050565b600060208201905081810360008301526116e08161144d565b9050919050565b6000602082019050818103600083015261170081611470565b9050919050565b6000602082019050818103600083015261172081611493565b9050919050565b60006020820190508181036000830152611740816114b6565b9050919050565b60006020820190508181036000830152611760816114d9565b9050919050565b600060208201905061177c60008301846114fc565b92915050565b600060c08201905061179760008301896114fc565b81810360208301526117a98188611394565b90506117b860408301876114fc565b6117c56060830186611385565b6117d26080830185611367565b6117df60a083018461133a565b979650505050505050565b600060c0820190506117ff60008301896114fc565b818103602083015261181181886113cd565b905061182060408301876114fc565b61182d60608301866114fc565b61183a6080830185611367565b61184760a083018461133a565b979650505050505050565b600061185c61186d565b90506118688282611a9b565b919050565b6000604051905090565b600067ffffffffffffffff82111561189257611891611bd1565b5b61189b82611c00565b9050602081019050919050565b60008190508160005260206000209050919050565b600081519050919050565b600082825260208201905092915050565b60006118e4826119c3565b91506118ef836119c3565b9250827fffffffffffffffffffffffffffffffffffffffffffffffffffffffffffffffff0382111561192457611923611b15565b5b828201905092915050565b600061193a826119c3565b9150611945836119c3565b92508261195557611954611b44565b5b828204905092915050565b600061196b826119a3565b9050919050565b600061197d826119a3565b9050919050565b60008115159050919050565b600081905061199e82611d2a565b919050565b600073ffffffffffffffffffffffffffffffffffffffff82169050919050565b6000819050919050565b60006119d882611a03565b9050919050565b60006119ea82611990565b9050919050565b60006119fc826119c3565b9050919050565b6000611a0e82611a15565b9050919050565b6000611a20826119a3565b9050919050565b82818337600083830152505050565b60005b83811015611a54578082015181840152602081019050611a39565b83811115611a63576000848401525b50505050565b60006002820490506001821680611a8157607f821691505b60208210811415611a9557611a94611ba2565b5b50919050565b611aa482611c00565b810181811067ffffffffffffffff82111715611ac357611ac2611bd1565b5b80604052505050565b6000611ad7826119c3565b91507fffffffffffffffffffffffffffffffffffffffffffffffffffffffffffffffff821415611b0a57611b09611b15565b5b600182019050919050565b7f4e487b7100000000000000000000000000000000000000000000000000000000600052601160045260246000fd5b7f4e487b7100000000000000000000000000000000000000000000000000000000600052601260045260246000fd5b7f4e487b7100000000000000000000000000000000000000000000000000000000600052602160045260246000fd5b7f4e487b7100000000000000000000000000000000000000000000000000000000600052602260045260246000fd5b7f4e487b7100000000000000000000000000000000000000000000000000000000600052604160045260246000fd5b6000601f19601f8301169050919050565b7f4f6e6c7920636f6e7472696275746f722063616e20766f746520210000000000600082015250565b7f596f7520646f6e7420686176652061636365737320746f20706572666f726d2060008201527f74686973206f7065726174696f6e202100000000000000000000000000000000602082015250565b7f596f7520616c726561647920766f746564202100000000000000000000000000600082015250565b7f5265717565737420616c726561647920636f6d706c6574656400000000000000600082015250565b7f496e73756666696369656e7420766f74657320666f722074686973207265717560008201527f6573740000000000000000000000000000000000000000000000000000000000602082015250565b60038110611d3b57611d3a611b73565b5b50565b611d4781611960565b8114611d5257600080fd5b50565b611d5e81611972565b8114611d6957600080fd5b50565b611d75816119c3565b8114611d8057600080fd5b5056fea26469706673582212200ccbb3fd4c111dc79a566292e6e3b7faf116dc6e140fe24cdf96f3c4636a256264736f6c63430008040033",
  "linkReferences": {},
  "deployedLinkReferences": {}
}