{
  "_format": "hh-sol-artifact-1",
  "contractName": "Project",
  "sourceName": "contracts/Project.sol",
  "abi": [
    {
      "inputs": [
        {
          "internalType": "address",
          "name": "_creator",
          "type": "address"
        },
        {
          "internalType": "uint256",
          "name": "_minimumContribution",
          "type": "uint256"
        },
        {
          "internalType": "uint256",
          "name": "_deadline",
          "type": "uint256"
        },
        {
          "internalType": "uint256",
          "name": "_targetContribution",
          "type": "uint256"
        },
        {
          "internalType": "string",
          "name": "_projectTitle",
          "type": "string"
        },
        {
          "internalType": "string",
          "name": "_projectDes",
          "type": "string"
        }
      ],
      "stateMutability": "nonpayable",
      "type": "constructor"
    },
    {
      "anonymous": false,
      "inputs": [
        {
          "indexed": false,
          "internalType": "uint256",
          "name": "requestId",
          "type": "uint256"
        },
        {
          "indexed": false,
          "internalType": "string",
          "name": "description",
          "type": "string"
        },
        {
          "indexed": false,
          "internalType": "uint256",
          "name": "amount",
          "type": "uint256"
        },
        {
          "indexed": false,
          "internalType": "uint256",
          "name": "yesVotes",
          "type": "uint256"
        },
        {
          "indexed": false,
          "internalType": "uint256",
          "name": "noVotes",
          "type": "uint256"
        },
        {
          "indexed": false,
          "internalType": "bool",
          "name": "isCompleted",
          "type": "bool"
        },
        {
          "indexed": false,
          "internalType": "address",
          "name": "reciptent",
          "type": "address"
        }
      ],
      "name": "AmountWithdrawSuccessful",
      "type": "event"
    },
    {
      "anonymous": false,
      "inputs": [
        {
          "indexed": false,
          "internalType": "address",
          "name": "contributor",
          "type": "address"
        },
        {
          "indexed": false,
          "internalType": "enum Project.State",
          "name": "state",
          "type": "uint8"
        }
      ],
      "name": "Expired",
      "type": "event"
    },
    {
      "anonymous": false,
      "inputs": [
        {
          "indexed": false,
          "internalType": "address",
          "name": "contributor",
          "type": "address"
        },
        {
          "indexed": false,
          "internalType": "uint256",
          "name": "amount",
          "type": "uint256"
        },
        {
          "indexed": false,
          "internalType": "uint256",
          "name": "currentTotal",
          "type": "uint256"
        }
      ],
      "name": "FundingReceived",
      "type": "event"
    },
    {
      "anonymous": false,
      "inputs": [
        {
          "indexed": false,
          "internalType": "address",
          "name": "contributor",
          "type": "address"
        },
        {
          "indexed": false,
          "internalType": "uint256",
          "name": "amount",
          "type": "uint256"
        }
      ],
      "name": "Refund",
      "type": "event"
    },
    {
      "anonymous": false,
      "inputs": [
        {
          "indexed": false,
          "internalType": "uint256",
          "name": "requestId",
          "type": "uint256"
        },
        {
          "indexed": false,
          "internalType": "string",
          "name": "description",
          "type": "string"
        },
        {
          "indexed": false,
          "internalType": "uint256",
          "name": "amount",
          "type": "uint256"
        },
        {
          "indexed": false,
          "internalType": "uint256",
          "name": "yesVotes",
          "type": "uint256"
        },
        {
          "indexed": false,
          "internalType": "uint256",
          "name": "noVotes",
          "type": "uint256"
        },
        {
          "indexed": false,
          "internalType": "bool",
          "name": "isCompleted",
          "type": "bool"
        },
        {
          "indexed": false,
          "internalType": "address",
          "name": "reciptent",
          "type": "address"
        }
      ],
      "name": "WithdrawRequestCreated",
      "type": "event"
    },
    {
      "anonymous": false,
      "inputs": [
        {
          "indexed": false,
          "internalType": "address",
          "name": "voter",
          "type": "address"
        },
        {
          "indexed": false,
          "internalType": "uint256",
          "name": "totalVote",
          "type": "uint256"
        }
      ],
      "name": "WithdrawVote",
      "type": "event"
    },
    {
      "inputs": [
        {
          "internalType": "address",
          "name": "_contributor",
          "type": "address"
        }
      ],
      "name": "contribute",
      "outputs": [],
      "stateMutability": "payable",
      "type": "function"
    },
    {
      "inputs": [
        {
          "internalType": "address",
          "name": "",
          "type": "address"
        }
      ],
      "name": "contributors",
      "outputs": [
        {
          "internalType": "uint256",
          "name": "",
          "type": "uint256"
        }
      ],
      "stateMutability": "view",
      "type": "function"
    },
    {
      "inputs": [
        {
          "internalType": "string",
          "name": "_description",
          "type": "string"
        },
        {
          "internalType": "uint256",
          "name": "_amount",
          "type": "uint256"
        },
        {
          "internalType": "address payable",
          "name": "_reciptent",
          "type": "address"
        }
      ],
      "name": "createWithdrawRequest",
      "outputs": [],
      "stateMutability": "nonpayable",
      "type": "function"
    },
    {
      "inputs": [],
      "name": "creator",
      "outputs": [
        {
          "internalType": "address payable",
          "name": "",
          "type": "address"
        }
      ],
      "stateMutability": "view",
      "type": "function"
    },
    {
      "inputs": [],
      "name": "deadline",
      "outputs": [
        {
          "internalType": "uint256",
          "name": "",
          "type": "uint256"
        }
      ],
      "stateMutability": "view",
      "type": "function"
    },
    {
      "inputs": [],
      "name": "getContractBalance",
      "outputs": [
        {
          "internalType": "uint256",
          "name": "",
          "type": "uint256"
        }
      ],
      "stateMutability": "view",
      "type": "function"
    },
    {
      "inputs": [],
      "name": "getProjectDetails",
      "outputs": [
        {
          "internalType": "address payable",
          "name": "projectStarter",
          "type": "address"
        },
        {
          "internalType": "uint256",
          "name": "minContribution",
          "type": "uint256"
        },
        {
          "internalType": "uint256",
          "name": "projectDeadline",
          "type": "uint256"
        },
        {
          "internalType": "uint256",
          "name": "goalAmount",
          "type": "uint256"
        },
        {
          "internalType": "uint256",
          "name": "completedTime",
          "type": "uint256"
        },
        {
          "internalType": "uint256",
          "name": "currentAmount",
          "type": "uint256"
        },
        {
          "internalType": "string",
          "name": "title",
          "type": "string"
        },
        {
          "internalType": "string",
          "name": "desc",
          "type": "string"
        },
        {
          "internalType": "enum Project.State",
          "name": "currentState",
          "type": "uint8"
        },
        {
          "internalType": "uint256",
          "name": "balance",
          "type": "uint256"
        }
      ],
      "stateMutability": "view",
      "type": "function"
    },
    {
      "inputs": [],
      "name": "getTrustees",
      "outputs": [
        {
          "internalType": "address[]",
          "name": "",
          "type": "address[]"
        }
      ],
      "stateMutability": "view",
      "type": "function"
    },
    {
      "inputs": [],
      "name": "minimumContribution",
      "outputs": [
        {
          "internalType": "uint256",
          "name": "",
          "type": "uint256"
        }
      ],
      "stateMutability": "view",
      "type": "function"
    },
    {
      "inputs": [],
      "name": "noOfContributors",
      "outputs": [
        {
          "internalType": "uint256",
          "name": "",
          "type": "uint256"
        }
      ],
      "stateMutability": "view",
      "type": "function"
    },
    {
      "inputs": [],
      "name": "numOfWithdrawRequests",
      "outputs": [
        {
          "internalType": "uint256",
          "name": "",
          "type": "uint256"
        }
      ],
      "stateMutability": "view",
      "type": "function"
    },
    {
      "inputs": [],
      "name": "projectDes",
      "outputs": [
        {
          "internalType": "string",
          "name": "",
          "type": "string"
        }
      ],
      "stateMutability": "view",
      "type": "function"
    },
    {
      "inputs": [],
      "name": "projectTitle",
      "outputs": [
        {
          "internalType": "string",
          "name": "",
          "type": "string"
        }
      ],
      "stateMutability": "view",
      "type": "function"
    },
    {
      "inputs": [],
      "name": "raisedAmount",
      "outputs": [
        {
          "internalType": "uint256",
          "name": "",
          "type": "uint256"
        }
      ],
      "stateMutability": "view",
      "type": "function"
    },
    {
      "inputs": [],
      "name": "requestRefund",
      "outputs": [
        {
          "internalType": "bool",
          "name": "",
          "type": "bool"
        }
      ],
      "stateMutability": "nonpayable",
      "type": "function"
    },
    {
      "inputs": [],
      "name": "state",
      "outputs": [
        {
          "internalType": "enum Project.State",
          "name": "",
          "type": "uint8"
        }
      ],
      "stateMutability": "view",
      "type": "function"
    },
    {
      "inputs": [],
      "name": "targetContribution",
      "outputs": [
        {
          "internalType": "uint256",
          "name": "",
          "type": "uint256"
        }
      ],
      "stateMutability": "view",
      "type": "function"
    },
    {
      "inputs": [
        {
          "internalType": "uint256",
          "name": "",
          "type": "uint256"
        }
      ],
      "name": "trustees",
      "outputs": [
        {
          "internalType": "address",
          "name": "",
          "type": "address"
        }
      ],
      "stateMutability": "view",
      "type": "function"
    },
    {
      "inputs": [
        {
          "internalType": "uint256",
          "name": "_requestId",
          "type": "uint256"
        },
        {
          "internalType": "bool",
          "name": "_vote",
          "type": "bool"
        }
      ],
      "name": "voteWithdrawRequest",
      "outputs": [],
      "stateMutability": "nonpayable",
      "type": "function"
    },
    {
      "inputs": [
        {
          "internalType": "uint256",
          "name": "_requestId",
          "type": "uint256"
        }
      ],
      "name": "withdrawRequestedAmount",
      "outputs": [],
      "stateMutability": "nonpayable",
      "type": "function"
    },
    {
      "inputs": [
        {
          "internalType": "uint256",
          "name": "",
          "type": "uint256"
        }
      ],
      "name": "withdrawRequests",
      "outputs": [
        {
          "internalType": "string",
          "name": "description",
          "type": "string"
        },
        {
          "internalType": "uint256",
          "name": "amount",
          "type": "uint256"
        },
        {
          "internalType": "uint256",
          "name": "yesVotes",
          "type": "uint256"
        },
        {
          "internalType": "uint256",
          "name": "noVotes",
          "type": "uint256"
        },
        {
          "internalType": "bool",
          "name": "isCompleted",
          "type": "bool"
        },
        {
          "internalType": "address payable",
          "name": "reciptent",
          "type": "address"
        }
      ],
      "stateMutability": "view",
      "type": "function"
    }
  ],
  "bytecode": "0x60806040526000600960006101000a81548160ff0219169083600281111562000051577f4e487b7100000000000000000000000000000000000000000000000000000000600052602160045260246000fd5b02179055506000600c553480156200006857600080fd5b5060405162002b6e38038062002b6e83398181016040528101906200008e919062000482565b856000806101000a81548173ffffffffffffffffffffffffffffffffffffffff021916908373ffffffffffffffffffffffffffffffffffffffff1602179055508460028190555083600381905550826004819055508160079080519060200190620000fb929190620002a3565b50806008908051906020019062000114929190620002a3565b5060006005819055506040518060a001604052807304fb8aa93070ccb375eca12e98d6a995555e201773ffffffffffffffffffffffffffffffffffffffff1673ffffffffffffffffffffffffffffffffffffffff16815260200173e0b0d918dcefe0f414b77a2d81850ea8776a34a973ffffffffffffffffffffffffffffffffffffffff1673ffffffffffffffffffffffffffffffffffffffff16815260200173ba83d2d5f76f34d0592452d3441902016878cb1a73ffffffffffffffffffffffffffffffffffffffff1673ffffffffffffffffffffffffffffffffffffffff16815260200173cff2ee28902259e8d00e1198e5565eb946f2a89773ffffffffffffffffffffffffffffffffffffffff1673ffffffffffffffffffffffffffffffffffffffff16815260200173316fd248cef6aa4d17267cf2b8f2065ba71feb7f73ffffffffffffffffffffffffffffffffffffffff1673ffffffffffffffffffffffffffffffffffffffff1681525060019060056200029692919062000334565b505050505050506200072c565b828054620002b1906200061d565b90600052602060002090601f016020900481019282620002d5576000855562000321565b82601f10620002f057805160ff191683800117855562000321565b8280016001018555821562000321579182015b828111156200032057825182559160200191906001019062000303565b5b509050620003309190620003c3565b5090565b828054828255906000526020600020908101928215620003b0579160200282015b82811115620003af5782518260006101000a81548173ffffffffffffffffffffffffffffffffffffffff021916908373ffffffffffffffffffffffffffffffffffffffff1602179055509160200191906001019062000355565b5b509050620003bf9190620003c3565b5090565b5b80821115620003de576000816000905550600101620003c4565b5090565b6000620003f9620003f38462000573565b6200054a565b9050828152602081018484840111156200041257600080fd5b6200041f848285620005e7565b509392505050565b6000815190506200043881620006f8565b92915050565b600082601f8301126200045057600080fd5b815162000462848260208601620003e2565b91505092915050565b6000815190506200047c8162000712565b92915050565b60008060008060008060c087890312156200049c57600080fd5b6000620004ac89828a0162000427565b9650506020620004bf89828a016200046b565b9550506040620004d289828a016200046b565b9450506060620004e589828a016200046b565b935050608087015167ffffffffffffffff8111156200050357600080fd5b6200051189828a016200043e565b92505060a087015167ffffffffffffffff8111156200052f57600080fd5b6200053d89828a016200043e565b9150509295509295509295565b60006200055662000569565b905062000564828262000653565b919050565b6000604051905090565b600067ffffffffffffffff821115620005915762000590620006b8565b5b6200059c82620006e7565b9050602081019050919050565b6000620005b682620005bd565b9050919050565b600073ffffffffffffffffffffffffffffffffffffffff82169050919050565b6000819050919050565b60005b8381101562000607578082015181840152602081019050620005ea565b8381111562000617576000848401525b50505050565b600060028204905060018216806200063657607f821691505b602082108114156200064d576200064c62000689565b5b50919050565b6200065e82620006e7565b810181811067ffffffffffffffff8211171562000680576200067f620006b8565b5b80604052505050565b7f4e487b7100000000000000000000000000000000000000000000000000000000600052602260045260246000fd5b7f4e487b7100000000000000000000000000000000000000000000000000000000600052604160045260246000fd5b6000601f19601f8301169050919050565b6200070381620005a9565b81146200070f57600080fd5b50565b6200071d81620005dd565b81146200072957600080fd5b50565b612432806200073c6000396000f3fe60806040526004361061012a5760003560e01c8063992a7dfb116100ab578063c19d93fb1161006f578063c19d93fb146103dc578063c3e20c9f14610407578063c4f276d414610432578063c59ee1dc1461045b578063d5cef13314610486578063ff3a9c7e146104b15761012a565b8063992a7dfb146102f0578063a46752ae14610332578063b40141bf1461035b578063b82c86d614610386578063beffaf09146103b15761012a565b80636f9fb98a116100f25780636f9fb98a14610218578063717d63a41461024357806373e888fd14610280578063752e19f91461029c578063937e09b1146102c55761012a565b806302d05d3f1461012f57806303c29d581461015a5780631f6d49421461018557806329dcb0cf146101c25780634e260f6f146101ed575b600080fd5b34801561013b57600080fd5b506101446104e5565b6040516101519190611abe565b60405180910390f35b34801561016657600080fd5b5061016f610509565b60405161017c9190611c3b565b60405180910390f35b34801561019157600080fd5b506101ac60048036038101906101a79190611735565b610597565b6040516101b99190611d85565b60405180910390f35b3480156101ce57600080fd5b506101d76105af565b6040516101e49190611d85565b60405180910390f35b3480156101f957600080fd5b506102026105b5565b60405161020f9190611d85565b60405180910390f35b34801561022457600080fd5b5061022d6105bb565b60405161023a9190611d85565b60405180910390f35b34801561024f57600080fd5b5061026a600480360381019061026591906117c5565b6105c3565b6040516102779190611aa3565b60405180910390f35b61029a60048036038101906102959190611735565b610602565b005b3480156102a857600080fd5b506102c360048036038101906102be91906117c5565b6107a2565b005b3480156102d157600080fd5b506102da610ab4565b6040516102e79190611d85565b60405180910390f35b3480156102fc57600080fd5b50610317600480360381019061031291906117c5565b610aba565b60405161032996959493929190611c5d565b60405180910390f35b34801561033e57600080fd5b506103596004803603810190610354919061175e565b610bab565b005b34801561036757600080fd5b50610370610d55565b60405161037d9190611d85565b60405180910390f35b34801561039257600080fd5b5061039b610d5b565b6040516103a89190611d85565b60405180910390f35b3480156103bd57600080fd5b506103c6610d61565b6040516103d39190611be3565b60405180910390f35b3480156103e857600080fd5b506103f1610def565b6040516103fe9190611c20565b60405180910390f35b34801561041357600080fd5b5061041c610e02565b6040516104299190611c3b565b60405180910390f35b34801561043e57600080fd5b50610459600480360381019061045491906117ee565b610e90565b005b34801561046757600080fd5b50610470611128565b60405161047d9190611d85565b60405180910390f35b34801561049257600080fd5b5061049b61112e565b6040516104a89190611c05565b60405180910390f35b3480156104bd57600080fd5b506104c6611289565b6040516104dc9a99989796959493929190611ad9565b60405180910390f35b60008054906101000a900473ffffffffffffffffffffffffffffffffffffffff1681565b60088054610516906120ab565b80601f0160208091040260200160405190810160405280929190818152602001828054610542906120ab565b801561058f5780601f106105645761010080835404028352916020019161058f565b820191906000526020600020905b81548152906001019060200180831161057257829003601f168201915b505050505081565b600a6020528060005260406000206000915090505481565b60035481565b60065481565b600047905090565b600181815481106105d357600080fd5b906000526020600020016000915054906101000a900473ffffffffffffffffffffffffffffffffffffffff1681565b6001600281111561063c577f4e487b7100000000000000000000000000000000000000000000000000000000600052602160045260246000fd5b600960009054906101000a900460ff166002811115610684577f4e487b7100000000000000000000000000000000000000000000000000000000600052602160045260246000fd5b1461079f576000600a60008373ffffffffffffffffffffffffffffffffffffffff1673ffffffffffffffffffffffffffffffffffffffff1681526020019081526020016000205414156106ea57600660008154809291906106e49061210e565b91905055505b34600a60008373ffffffffffffffffffffffffffffffffffffffff1673ffffffffffffffffffffffffffffffffffffffff16815260200190815260200160002060008282546107399190611f4c565b9250508190555034600560008282546107529190611f4c565b925050819055507f5cdc4ab8d637538ead6cc1904d4160343656c8c82bd266635cfd31ac008fffe0813460055460405161078e93929190611bac565b60405180910390a161079e61140d565b5b50565b60008054906101000a900473ffffffffffffffffffffffffffffffffffffffff1673ffffffffffffffffffffffffffffffffffffffff163373ffffffffffffffffffffffffffffffffffffffff1614610830576040517f08c379a000000000000000000000000000000000000000000000000000000000815260040161082790611ce5565b60405180910390fd5b6000600b60008381526020019081526020016000209050600015158160050160009054906101000a900460ff1615151461089f576040517f08c379a000000000000000000000000000000000000000000000000000000000815260040161089690611d45565b60405180910390fd5b6000600390506108ae836114cd565b6108ed576040517f08c379a00000000000000000000000000000000000000000000000000000000081526004016108e490611d65565b60405180910390fd5b80826002015410610a00578160050160019054906101000a900473ffffffffffffffffffffffffffffffffffffffff1673ffffffffffffffffffffffffffffffffffffffff166108fc83600101549081150290604051600060405180830381858888f19350505050158015610966573d6000803e3d6000fd5b5060018260050160006101000a81548160ff0219169083151502179055507f7a5218350187d3ab901ae3c2001a4348ce5a2089ac30ce35d2fc55b53feac2a5838360000184600101548560020154866003015460018860050160019054906101000a900473ffffffffffffffffffffffffffffffffffffffff166040516109f39796959493929190611e16565b60405180910390a1610aaf565b816002015482600301541115610aae57610a1861112e565b5060018260050160006101000a81548160ff0219169083151502179055507f7a5218350187d3ab901ae3c2001a4348ce5a2089ac30ce35d2fc55b53feac2a5838360000184600101548560020154866003015460008860050160019054906101000a900473ffffffffffffffffffffffffffffffffffffffff16604051610aa59796959493929190611e16565b60405180910390a15b5b505050565b60025481565b600b602052806000526040600020600091509050806000018054610add906120ab565b80601f0160208091040260200160405190810160405280929190818152602001828054610b09906120ab565b8015610b565780601f10610b2b57610100808354040283529160200191610b56565b820191906000526020600020905b815481529060010190602001808311610b3957829003601f168201915b5050505050908060010154908060020154908060030154908060050160009054906101000a900460ff16908060050160019054906101000a900473ffffffffffffffffffffffffffffffffffffffff16905086565b60008054906101000a900473ffffffffffffffffffffffffffffffffffffffff1673ffffffffffffffffffffffffffffffffffffffff163373ffffffffffffffffffffffffffffffffffffffff1614610c39576040517f08c379a0000000000000000000000000000000000000000000000000000000008152600401610c3090611ce5565b60405180910390fd5b6000600b6000600c5481526020019081526020016000209050600c6000815480929190610c659061210e565b919050555083816000019080519060200190610c829291906115d6565b50828160010181905550600081600201819055506000816003018190555060008160050160006101000a81548160ff021916908315150217905550818160050160016101000a81548173ffffffffffffffffffffffffffffffffffffffff021916908373ffffffffffffffffffffffffffffffffffffffff1602179055507f3009567e0613f3581563a052fea56298aca1363831103cf6f1cbb8bf5ae122f3600c548585600080600088604051610d3f9796959493929190611da0565b60405180910390a1610d4f61140d565b50505050565b600c5481565b60045481565b60606001805480602002602001604051908101604052809291908181526020018280548015610de557602002820191906000526020600020905b8160009054906101000a900473ffffffffffffffffffffffffffffffffffffffff1673ffffffffffffffffffffffffffffffffffffffff1681526020019060010190808311610d9b575b5050505050905090565b600960009054906101000a900460ff1681565b60078054610e0f906120ab565b80601f0160208091040260200160405190810160405280929190818152602001828054610e3b906120ab565b8015610e885780601f10610e5d57610100808354040283529160200191610e88565b820191906000526020600020905b815481529060010190602001808311610e6b57829003601f168201915b505050505081565b6000805b600180549050811015610f55573373ffffffffffffffffffffffffffffffffffffffff1660018281548110610ef2577f4e487b7100000000000000000000000000000000000000000000000000000000600052603260045260246000fd5b9060005260206000200160009054906101000a900473ffffffffffffffffffffffffffffffffffffffff1673ffffffffffffffffffffffffffffffffffffffff161415610f425760019150610f55565b8080610f4d9061210e565b915050610e94565b5080610f96576040517f08c379a0000000000000000000000000000000000000000000000000000000008152600401610f8d90611cc5565b60405180910390fd5b6000600b600085815260200190815260200160002090508060040160003373ffffffffffffffffffffffffffffffffffffffff1673ffffffffffffffffffffffffffffffffffffffff16815260200190815260200160002060009054906101000a900460ff161561103c576040517f08c379a000000000000000000000000000000000000000000000000000000000815260040161103390611d25565b60405180910390fd5b8215611061578060020160008154809291906110579061210e565b919050555061107c565b8060030160008154809291906110769061210e565b91905055505b60018160040160003373ffffffffffffffffffffffffffffffffffffffff1673ffffffffffffffffffffffffffffffffffffffff16815260200190815260200160002060006101000a81548160ff0219169083151502179055507fa2925e4595bf873fa82c22a1a89809777347023bf2b502d32710157a5eb8199c338260030154836002015461110c9190611f4c565b60405161111a929190611b83565b60405180910390a150505050565b60055481565b600080600a60003373ffffffffffffffffffffffffffffffffffffffff1673ffffffffffffffffffffffffffffffffffffffff16815260200190815260200160002054116111b1576040517f08c379a00000000000000000000000000000000000000000000000000000000081526004016111a890611d05565b60405180910390fd5b60003390508073ffffffffffffffffffffffffffffffffffffffff166108fc600a60003373ffffffffffffffffffffffffffffffffffffffff1673ffffffffffffffffffffffffffffffffffffffff168152602001908152602001600020549081150290604051600060405180830381858888f1935050505015801561123b573d6000803e3d6000fd5b506000600a60003373ffffffffffffffffffffffffffffffffffffffff1673ffffffffffffffffffffffffffffffffffffffff16815260200190815260200160002081905550600191505090565b60008060008060008060608060008060008054906101000a900473ffffffffffffffffffffffffffffffffffffffff1699506002549850600354975060045496504295506005549450600780546112df906120ab565b80601f016020809104026020016040519081016040528092919081815260200182805461130b906120ab565b80156113585780601f1061132d57610100808354040283529160200191611358565b820191906000526020600020905b81548152906001019060200180831161133b57829003601f168201915b505050505093506008805461136c906120ab565b80601f0160208091040260200160405190810160405280929190818152602001828054611398906120ab565b80156113e55780601f106113ba576101008083540402835291602001916113e5565b820191906000526020600020905b8154815290600101906020018083116113c857829003601f168201915b50505050509250600960009054906101000a900460ff16915047905090919293949596979899565b6004546005541061146e576002600960006101000a81548160ff02191690836002811115611464577f4e487b7100000000000000000000000000000000000000000000000000000000600052602160045260246000fd5b02179055506114cb565b6003544211156114ca576001600960006101000a81548160ff021916908360028111156114c4577f4e487b7100000000000000000000000000000000000000000000000000000000600052602160045260246000fd5b02179055505b5b565b600080600b6000848152602001908152602001600020905060005b6001805490508110156115ca5781600401600060018381548110611535577f4e487b7100000000000000000000000000000000000000000000000000000000600052603260045260246000fd5b9060005260206000200160009054906101000a900473ffffffffffffffffffffffffffffffffffffffff1673ffffffffffffffffffffffffffffffffffffffff1673ffffffffffffffffffffffffffffffffffffffff16815260200190815260200160002060009054906101000a900460ff166115b7576000925050506115d1565b80806115c29061210e565b9150506114e8565b5060019150505b919050565b8280546115e2906120ab565b90600052602060002090601f016020900481019282611604576000855561164b565b82601f1061161d57805160ff191683800117855561164b565b8280016001018555821561164b579182015b8281111561164a57825182559160200191906001019061162f565b5b509050611658919061165c565b5090565b5b8082111561167557600081600090555060010161165d565b5090565b600061168c61168784611eb1565b611e8c565b9050828152602081018484840111156116a457600080fd5b6116af848285612069565b509392505050565b6000813590506116c6816123a0565b92915050565b6000813590506116db816123b7565b92915050565b6000813590506116f0816123ce565b92915050565b600082601f83011261170757600080fd5b8135611717848260208601611679565b91505092915050565b60008135905061172f816123e5565b92915050565b60006020828403121561174757600080fd5b6000611755848285016116b7565b91505092915050565b60008060006060848603121561177357600080fd5b600084013567ffffffffffffffff81111561178d57600080fd5b611799868287016116f6565b93505060206117aa86828701611720565b92505060406117bb868287016116cc565b9150509250925092565b6000602082840312156117d757600080fd5b60006117e584828501611720565b91505092915050565b6000806040838503121561180157600080fd5b600061180f85828601611720565b9250506020611820858286016116e1565b9150509250929050565b60006118368383611860565b60208301905092915050565b61184b8161200f565b82525050565b61185a81611fb4565b82525050565b61186981611fa2565b82525050565b61187881611fa2565b82525050565b600061188982611f07565b6118938185611f2a565b935061189e83611ee2565b8060005b838110156118cf5781516118b6888261182a565b97506118c183611f1d565b9250506001810190506118a2565b5085935050505092915050565b6118e581611fc6565b82525050565b6118f481612021565b82525050565b61190381612033565b82525050565b600061191482611f12565b61191e8185611f3b565b935061192e818560208601612078565b61193781612213565b840191505092915050565b6000815461194f816120ab565b6119598186611f3b565b945060018216600081146119745760018114611986576119b9565b60ff19831686526020860193506119b9565b61198f85611ef2565b60005b838110156119b157815481890152600182019150602081019050611992565b808801955050505b50505092915050565b60006119cf602883611f3b565b91506119da82612224565b604082019050919050565b60006119f2602f83611f3b565b91506119fd82612273565b604082019050919050565b6000611a15602583611f3b565b9150611a20826122c2565b604082019050919050565b6000611a38601283611f3b565b9150611a4382612311565b602082019050919050565b6000611a5b601983611f3b565b9150611a668261233a565b602082019050919050565b6000611a7e601b83611f3b565b9150611a8982612363565b602082019050919050565b611a9d81612005565b82525050565b6000602082019050611ab8600083018461186f565b92915050565b6000602082019050611ad36000830184611851565b92915050565b600061014082019050611aef600083018d611851565b611afc602083018c611a94565b611b09604083018b611a94565b611b16606083018a611a94565b611b236080830189611a94565b611b3060a0830188611a94565b81810360c0830152611b428187611909565b905081810360e0830152611b568186611909565b9050611b666101008301856118eb565b611b74610120830184611a94565b9b9a5050505050505050505050565b6000604082019050611b98600083018561186f565b611ba56020830184611a94565b9392505050565b6000606082019050611bc1600083018661186f565b611bce6020830185611a94565b611bdb6040830184611a94565b949350505050565b60006020820190508181036000830152611bfd818461187e565b905092915050565b6000602082019050611c1a60008301846118dc565b92915050565b6000602082019050611c3560008301846118eb565b92915050565b60006020820190508181036000830152611c558184611909565b905092915050565b600060c0820190508181036000830152611c778189611909565b9050611c866020830188611a94565b611c936040830187611a94565b611ca06060830186611a94565b611cad60808301856118dc565b611cba60a0830184611851565b979650505050505050565b60006020820190508181036000830152611cde816119c2565b9050919050565b60006020820190508181036000830152611cfe816119e5565b9050919050565b60006020820190508181036000830152611d1e81611a08565b9050919050565b60006020820190508181036000830152611d3e81611a2b565b9050919050565b60006020820190508181036000830152611d5e81611a4e565b9050919050565b60006020820190508181036000830152611d7e81611a71565b9050919050565b6000602082019050611d9a6000830184611a94565b92915050565b600060e082019050611db5600083018a611a94565b8181036020830152611dc78189611909565b9050611dd66040830188611a94565b611de360608301876118fa565b611df060808301866118fa565b611dfd60a08301856118dc565b611e0a60c0830184611842565b98975050505050505050565b600060e082019050611e2b600083018a611a94565b8181036020830152611e3d8189611942565b9050611e4c6040830188611a94565b611e596060830187611a94565b611e666080830186611a94565b611e7360a08301856118dc565b611e8060c0830184611842565b98975050505050505050565b6000611e96611ea7565b9050611ea282826120dd565b919050565b6000604051905090565b600067ffffffffffffffff821115611ecc57611ecb6121e4565b5b611ed582612213565b9050602081019050919050565b6000819050602082019050919050565b60008190508160005260206000209050919050565b600081519050919050565b600081519050919050565b6000602082019050919050565b600082825260208201905092915050565b600082825260208201905092915050565b6000611f5782612005565b9150611f6283612005565b9250827fffffffffffffffffffffffffffffffffffffffffffffffffffffffffffffffff03821115611f9757611f96612157565b5b828201905092915050565b6000611fad82611fe5565b9050919050565b6000611fbf82611fe5565b9050919050565b60008115159050919050565b6000819050611fe08261238c565b919050565b600073ffffffffffffffffffffffffffffffffffffffff82169050919050565b6000819050919050565b600061201a82612045565b9050919050565b600061202c82611fd2565b9050919050565b600061203e82612005565b9050919050565b600061205082612057565b9050919050565b600061206282611fe5565b9050919050565b82818337600083830152505050565b60005b8381101561209657808201518184015260208101905061207b565b838111156120a5576000848401525b50505050565b600060028204905060018216806120c357607f821691505b602082108114156120d7576120d66121b5565b5b50919050565b6120e682612213565b810181811067ffffffffffffffff82111715612105576121046121e4565b5b80604052505050565b600061211982612005565b91507fffffffffffffffffffffffffffffffffffffffffffffffffffffffffffffffff82141561214c5761214b612157565b5b600182019050919050565b7f4e487b7100000000000000000000000000000000000000000000000000000000600052601160045260246000fd5b7f4e487b7100000000000000000000000000000000000000000000000000000000600052602160045260246000fd5b7f4e487b7100000000000000000000000000000000000000000000000000000000600052602260045260246000fd5b7f4e487b7100000000000000000000000000000000000000000000000000000000600052604160045260246000fd5b6000601f19601f8301169050919050565b7f4f6e6c7920747275737465652063616e20706572666f726d2074686973206f7060008201527f65726174696f6e21000000000000000000000000000000000000000000000000602082015250565b7f596f7520646f6e7420686176652061636365737320746f20706572666f726d2060008201527f74686973206f7065726174696f6e210000000000000000000000000000000000602082015250565b7f596f7520646f6e74206861766520616e7920636f6e747269627574656420616d60008201527f6f756e7421000000000000000000000000000000000000000000000000000000602082015250565b7f596f7520616c726561647920766f746564210000000000000000000000000000600082015250565b7f5265717565737420616c726561647920636f6d706c6574656400000000000000600082015250565b7f4e6f7420616c6c207472757374656573206861766520766f7465640000000000600082015250565b6003811061239d5761239c612186565b5b50565b6123a981611fa2565b81146123b457600080fd5b50565b6123c081611fb4565b81146123cb57600080fd5b50565b6123d781611fc6565b81146123e257600080fd5b50565b6123ee81612005565b81146123f957600080fd5b5056fea2646970667358221220b28d79bdbbbe48066eca51d7839bc99eb1586cb49e405f77af6554859553c40a64736f6c63430008040033",
  "linkReferences": {},
  "deployedLinkReferences": {}
}