{
  "_format": "hh-sol-artifact-1",
  "contractName": "Project",
  "sourceName": "contracts/Project.sol",
  "abi": [
    {
      "inputs": [
        {
          "internalType": "address",
          "name": "_creator",
          "type": "address"
        },
        {
          "internalType": "uint256",
          "name": "_minimumContribution",
          "type": "uint256"
        },
        {
          "internalType": "uint256",
          "name": "_deadline",
          "type": "uint256"
        },
        {
          "internalType": "uint256",
          "name": "_targetContribution",
          "type": "uint256"
        },
        {
          "internalType": "string",
          "name": "_projectTitle",
          "type": "string"
        },
        {
          "internalType": "string",
          "name": "_projectDes",
          "type": "string"
        }
      ],
      "stateMutability": "nonpayable",
      "type": "constructor"
    },
    {
      "anonymous": false,
      "inputs": [
        {
          "indexed": false,
          "internalType": "uint256",
          "name": "requestId",
          "type": "uint256"
        },
        {
          "indexed": false,
          "internalType": "string",
          "name": "description",
          "type": "string"
        },
        {
          "indexed": false,
          "internalType": "uint256",
          "name": "amount",
          "type": "uint256"
        },
        {
          "indexed": false,
          "internalType": "uint256",
          "name": "noOfVotes",
          "type": "uint256"
        },
        {
          "indexed": false,
          "internalType": "bool",
          "name": "isCompleted",
          "type": "bool"
        },
        {
          "indexed": false,
          "internalType": "address",
          "name": "reciptent",
          "type": "address"
        }
      ],
      "name": "AmountWithdrawSuccessful",
      "type": "event"
    },
    {
      "anonymous": false,
      "inputs": [
        {
          "indexed": false,
          "internalType": "address",
          "name": "contributor",
          "type": "address"
        },
        {
          "indexed": false,
          "internalType": "enum Project.State",
          "name": "state",
          "type": "uint8"
        }
      ],
      "name": "Expired",
      "type": "event"
    },
    {
      "anonymous": false,
      "inputs": [
        {
          "indexed": false,
          "internalType": "address",
          "name": "contributor",
          "type": "address"
        },
        {
          "indexed": false,
          "internalType": "uint256",
          "name": "amount",
          "type": "uint256"
        },
        {
          "indexed": false,
          "internalType": "uint256",
          "name": "currentTotal",
          "type": "uint256"
        }
      ],
      "name": "FundingReceived",
      "type": "event"
    },
    {
      "anonymous": false,
      "inputs": [
        {
          "indexed": false,
          "internalType": "address[]",
          "name": "trustees",
          "type": "address[]"
        }
      ],
      "name": "TrusteesAdded",
      "type": "event"
    },
    {
      "anonymous": false,
      "inputs": [
        {
          "indexed": false,
          "internalType": "uint256",
          "name": "requestId",
          "type": "uint256"
        },
        {
          "indexed": false,
          "internalType": "string",
          "name": "description",
          "type": "string"
        },
        {
          "indexed": false,
          "internalType": "uint256",
          "name": "amount",
          "type": "uint256"
        },
        {
          "indexed": false,
          "internalType": "uint256",
          "name": "noOfVotes",
          "type": "uint256"
        },
        {
          "indexed": false,
          "internalType": "bool",
          "name": "isCompleted",
          "type": "bool"
        },
        {
          "indexed": false,
          "internalType": "address",
          "name": "reciptent",
          "type": "address"
        }
      ],
      "name": "WithdrawRequestCreated",
      "type": "event"
    },
    {
      "anonymous": false,
      "inputs": [
        {
          "indexed": false,
          "internalType": "address",
          "name": "voter",
          "type": "address"
        },
        {
          "indexed": false,
          "internalType": "uint256",
          "name": "totalVote",
          "type": "uint256"
        }
      ],
      "name": "WithdrawVote",
      "type": "event"
    },
    {
      "inputs": [
        {
          "internalType": "address",
          "name": "_contributor",
          "type": "address"
        }
      ],
      "name": "contribute",
      "outputs": [],
      "stateMutability": "payable",
      "type": "function"
    },
    {
      "inputs": [
        {
          "internalType": "address",
          "name": "",
          "type": "address"
        }
      ],
      "name": "contributors",
      "outputs": [
        {
          "internalType": "uint256",
          "name": "",
          "type": "uint256"
        }
      ],
      "stateMutability": "view",
      "type": "function"
    },
    {
      "inputs": [
        {
          "internalType": "string",
          "name": "_description",
          "type": "string"
        },
        {
          "internalType": "uint256",
          "name": "_amount",
          "type": "uint256"
        },
        {
          "internalType": "address payable",
          "name": "_reciptent",
          "type": "address"
        }
      ],
      "name": "createWithdrawRequest",
      "outputs": [],
      "stateMutability": "nonpayable",
      "type": "function"
    },
    {
      "inputs": [],
      "name": "creator",
      "outputs": [
        {
          "internalType": "address payable",
          "name": "",
          "type": "address"
        }
      ],
      "stateMutability": "view",
      "type": "function"
    },
    {
      "inputs": [],
      "name": "deadline",
      "outputs": [
        {
          "internalType": "uint256",
          "name": "",
          "type": "uint256"
        }
      ],
      "stateMutability": "view",
      "type": "function"
    },
    {
      "inputs": [],
      "name": "getContractBalance",
      "outputs": [
        {
          "internalType": "uint256",
          "name": "",
          "type": "uint256"
        }
      ],
      "stateMutability": "view",
      "type": "function"
    },
    {
      "inputs": [],
      "name": "getProjectDetails",
      "outputs": [
        {
          "internalType": "address payable",
          "name": "projectStarter",
          "type": "address"
        },
        {
          "internalType": "uint256",
          "name": "minContribution",
          "type": "uint256"
        },
        {
          "internalType": "uint256",
          "name": "projectDeadline",
          "type": "uint256"
        },
        {
          "internalType": "uint256",
          "name": "goalAmount",
          "type": "uint256"
        },
        {
          "internalType": "uint256",
          "name": "completedTime",
          "type": "uint256"
        },
        {
          "internalType": "uint256",
          "name": "currentAmount",
          "type": "uint256"
        },
        {
          "internalType": "string",
          "name": "title",
          "type": "string"
        },
        {
          "internalType": "string",
          "name": "desc",
          "type": "string"
        },
        {
          "internalType": "enum Project.State",
          "name": "currentState",
          "type": "uint8"
        },
        {
          "internalType": "uint256",
          "name": "balance",
          "type": "uint256"
        }
      ],
      "stateMutability": "view",
      "type": "function"
    },
    {
      "inputs": [],
      "name": "getTrustees",
      "outputs": [
        {
          "internalType": "address[]",
          "name": "",
          "type": "address[]"
        }
      ],
      "stateMutability": "view",
      "type": "function"
    },
    {
      "inputs": [],
      "name": "minimumContribution",
      "outputs": [
        {
          "internalType": "uint256",
          "name": "",
          "type": "uint256"
        }
      ],
      "stateMutability": "view",
      "type": "function"
    },
    {
      "inputs": [],
      "name": "noOfContributors",
      "outputs": [
        {
          "internalType": "uint256",
          "name": "",
          "type": "uint256"
        }
      ],
      "stateMutability": "view",
      "type": "function"
    },
    {
      "inputs": [],
      "name": "numOfWithdrawRequests",
      "outputs": [
        {
          "internalType": "uint256",
          "name": "",
          "type": "uint256"
        }
      ],
      "stateMutability": "view",
      "type": "function"
    },
    {
      "inputs": [],
      "name": "projectDes",
      "outputs": [
        {
          "internalType": "string",
          "name": "",
          "type": "string"
        }
      ],
      "stateMutability": "view",
      "type": "function"
    },
    {
      "inputs": [],
      "name": "projectTitle",
      "outputs": [
        {
          "internalType": "string",
          "name": "",
          "type": "string"
        }
      ],
      "stateMutability": "view",
      "type": "function"
    },
    {
      "inputs": [],
      "name": "raisedAmount",
      "outputs": [
        {
          "internalType": "uint256",
          "name": "",
          "type": "uint256"
        }
      ],
      "stateMutability": "view",
      "type": "function"
    },
    {
      "inputs": [],
      "name": "setStateExpired",
      "outputs": [],
      "stateMutability": "nonpayable",
      "type": "function"
    },
    {
      "inputs": [],
      "name": "state",
      "outputs": [
        {
          "internalType": "enum Project.State",
          "name": "",
          "type": "uint8"
        }
      ],
      "stateMutability": "view",
      "type": "function"
    },
    {
      "inputs": [],
      "name": "targetContribution",
      "outputs": [
        {
          "internalType": "uint256",
          "name": "",
          "type": "uint256"
        }
      ],
      "stateMutability": "view",
      "type": "function"
    },
    {
      "inputs": [
        {
          "internalType": "uint256",
          "name": "",
          "type": "uint256"
        }
      ],
      "name": "trustees",
      "outputs": [
        {
          "internalType": "address",
          "name": "",
          "type": "address"
        }
      ],
      "stateMutability": "view",
      "type": "function"
    },
    {
      "inputs": [
        {
          "internalType": "uint256",
          "name": "_requestId",
          "type": "uint256"
        }
      ],
      "name": "voteWithdrawRequest",
      "outputs": [],
      "stateMutability": "nonpayable",
      "type": "function"
    },
    {
      "inputs": [
        {
          "internalType": "uint256",
          "name": "_requestId",
          "type": "uint256"
        }
      ],
      "name": "withdrawRequestedAmount",
      "outputs": [],
      "stateMutability": "nonpayable",
      "type": "function"
    },
    {
      "inputs": [
        {
          "internalType": "uint256",
          "name": "",
          "type": "uint256"
        }
      ],
      "name": "withdrawRequests",
      "outputs": [
        {
          "internalType": "string",
          "name": "description",
          "type": "string"
        },
        {
          "internalType": "uint256",
          "name": "amount",
          "type": "uint256"
        },
        {
          "internalType": "uint256",
          "name": "noOfVotes",
          "type": "uint256"
        },
        {
          "internalType": "bool",
          "name": "isCompleted",
          "type": "bool"
        },
        {
          "internalType": "address payable",
          "name": "reciptent",
          "type": "address"
        }
      ],
      "stateMutability": "view",
      "type": "function"
    }
  ],
  "bytecode": "0x60806040526000600960006101000a81548160ff0219169083600281111562000051577f4e487b7100000000000000000000000000000000000000000000000000000000600052602160045260246000fd5b02179055506000600c553480156200006857600080fd5b50604051620027223803806200272283398181016040528101906200008e919062000482565b856000806101000a81548173ffffffffffffffffffffffffffffffffffffffff021916908373ffffffffffffffffffffffffffffffffffffffff1602179055508460028190555083600381905550826004819055508160079080519060200190620000fb929190620002a3565b50806008908051906020019062000114929190620002a3565b5060006005819055506040518060a001604052807304fb8aa93070ccb375eca12e98d6a995555e201773ffffffffffffffffffffffffffffffffffffffff1673ffffffffffffffffffffffffffffffffffffffff16815260200173e0b0d918dcefe0f414b77a2d81850ea8776a34a973ffffffffffffffffffffffffffffffffffffffff1673ffffffffffffffffffffffffffffffffffffffff16815260200173ba83d2d5f76f34d0592452d3441902016878cb1a73ffffffffffffffffffffffffffffffffffffffff1673ffffffffffffffffffffffffffffffffffffffff16815260200173cff2ee28902259e8d00e1198e5565eb946f2a89773ffffffffffffffffffffffffffffffffffffffff1673ffffffffffffffffffffffffffffffffffffffff16815260200173316fd248cef6aa4d17267cf2b8f2065ba71feb7f73ffffffffffffffffffffffffffffffffffffffff1673ffffffffffffffffffffffffffffffffffffffff1681525060019060056200029692919062000334565b505050505050506200072c565b828054620002b1906200061d565b90600052602060002090601f016020900481019282620002d5576000855562000321565b82601f10620002f057805160ff191683800117855562000321565b8280016001018555821562000321579182015b828111156200032057825182559160200191906001019062000303565b5b509050620003309190620003c3565b5090565b828054828255906000526020600020908101928215620003b0579160200282015b82811115620003af5782518260006101000a81548173ffffffffffffffffffffffffffffffffffffffff021916908373ffffffffffffffffffffffffffffffffffffffff1602179055509160200191906001019062000355565b5b509050620003bf9190620003c3565b5090565b5b80821115620003de576000816000905550600101620003c4565b5090565b6000620003f9620003f38462000573565b6200054a565b9050828152602081018484840111156200041257600080fd5b6200041f848285620005e7565b509392505050565b6000815190506200043881620006f8565b92915050565b600082601f8301126200045057600080fd5b815162000462848260208601620003e2565b91505092915050565b6000815190506200047c8162000712565b92915050565b60008060008060008060c087890312156200049c57600080fd5b6000620004ac89828a0162000427565b9650506020620004bf89828a016200046b565b9550506040620004d289828a016200046b565b9450506060620004e589828a016200046b565b935050608087015167ffffffffffffffff8111156200050357600080fd5b6200051189828a016200043e565b92505060a087015167ffffffffffffffff8111156200052f57600080fd5b6200053d89828a016200043e565b9150509295509295509295565b60006200055662000569565b905062000564828262000653565b919050565b6000604051905090565b600067ffffffffffffffff821115620005915762000590620006b8565b5b6200059c82620006e7565b9050602081019050919050565b6000620005b682620005bd565b9050919050565b600073ffffffffffffffffffffffffffffffffffffffff82169050919050565b6000819050919050565b60005b8381101562000607578082015181840152602081019050620005ea565b8381111562000617576000848401525b50505050565b600060028204905060018216806200063657607f821691505b602082108114156200064d576200064c62000689565b5b50919050565b6200065e82620006e7565b810181811067ffffffffffffffff8211171562000680576200067f620006b8565b5b80604052505050565b7f4e487b7100000000000000000000000000000000000000000000000000000000600052602260045260246000fd5b7f4e487b7100000000000000000000000000000000000000000000000000000000600052604160045260246000fd5b6000601f19601f8301169050919050565b6200070381620005a9565b81146200070f57600080fd5b50565b6200071d81620005dd565b81146200072957600080fd5b50565b611fe6806200073c6000396000f3fe60806040526004361061012a5760003560e01c8063937e09b1116100ab578063beffaf091161006f578063beffaf09146103d9578063c19d93fb14610404578063c3e20c9f1461042f578063c59ee1dc1461045a578063e85001e814610485578063ff3a9c7e1461049c5761012a565b8063937e09b1146102ee578063992a7dfb14610319578063a46752ae1461035a578063b40141bf14610383578063b82c86d6146103ae5761012a565b80634e695a37116100f25780634e695a37146102185780636f9fb98a14610241578063717d63a41461026c57806373e888fd146102a9578063752e19f9146102c55761012a565b806302d05d3f1461012f57806303c29d581461015a5780631f6d49421461018557806329dcb0cf146101c25780634e260f6f146101ed575b600080fd5b34801561013b57600080fd5b506101446104d0565b6040516101519190611717565b60405180910390f35b34801561016657600080fd5b5061016f6104f4565b60405161017c9190611879565b60405180910390f35b34801561019157600080fd5b506101ac60048036038101906101a791906113ed565b610582565b6040516101b99190611995565b60405180910390f35b3480156101ce57600080fd5b506101d761059a565b6040516101e49190611995565b60405180910390f35b3480156101f957600080fd5b506102026105a0565b60405161020f9190611995565b60405180910390f35b34801561022457600080fd5b5061023f600480360381019061023a919061147d565b6105a6565b005b34801561024d57600080fd5b5061025661080a565b6040516102639190611995565b60405180910390f35b34801561027857600080fd5b50610293600480360381019061028e919061147d565b610812565b6040516102a091906116fc565b60405180910390f35b6102c360048036038101906102be91906113ed565b610851565b005b3480156102d157600080fd5b506102ec60048036038101906102e7919061147d565b6109f1565b005b3480156102fa57600080fd5b50610303610c3d565b6040516103109190611995565b60405180910390f35b34801561032557600080fd5b50610340600480360381019061033b919061147d565b610c43565b60405161035195949392919061189b565b60405180910390f35b34801561036657600080fd5b50610381600480360381019061037c9190611416565b610d2e565b005b34801561038f57600080fd5b50610398610ecb565b6040516103a59190611995565b60405180910390f35b3480156103ba57600080fd5b506103c3610ed1565b6040516103d09190611995565b60405180910390f35b3480156103e557600080fd5b506103ee610ed7565b6040516103fb919061183c565b60405180910390f35b34801561041057600080fd5b50610419610f65565b604051610426919061185e565b60405180910390f35b34801561043b57600080fd5b50610444610f78565b6040516104519190611879565b60405180910390f35b34801561046657600080fd5b5061046f611006565b60405161047c9190611995565b60405180910390f35b34801561049157600080fd5b5061049a61100c565b005b3480156104a857600080fd5b506104b161105f565b6040516104c79a99989796959493929190611732565b60405180910390f35b60008054906101000a900473ffffffffffffffffffffffffffffffffffffffff1681565b6008805461050190611c9f565b80601f016020809104026020016040519081016040528092919081815260200182805461052d90611c9f565b801561057a5780601f1061054f5761010080835404028352916020019161057a565b820191906000526020600020905b81548152906001019060200180831161055d57829003601f168201915b505050505081565b600a6020528060005260406000206000915090505481565b60035481565b60065481565b6000805b60018054905081101561066b573373ffffffffffffffffffffffffffffffffffffffff1660018281548110610608577f4e487b7100000000000000000000000000000000000000000000000000000000600052603260045260246000fd5b9060005260206000200160009054906101000a900473ffffffffffffffffffffffffffffffffffffffff1673ffffffffffffffffffffffffffffffffffffffff161415610658576001915061066b565b808061066390611d02565b9150506105aa565b50806106ac576040517f08c379a00000000000000000000000000000000000000000000000000000000081526004016106a3906118f5565b60405180910390fd5b6000600b600084815260200190815260200160002090508060030160003373ffffffffffffffffffffffffffffffffffffffff1673ffffffffffffffffffffffffffffffffffffffff16815260200190815260200160002060009054906101000a900460ff1615610752576040517f08c379a000000000000000000000000000000000000000000000000000000000815260040161074990611935565b60405180910390fd5b60018160030160003373ffffffffffffffffffffffffffffffffffffffff1673ffffffffffffffffffffffffffffffffffffffff16815260200190815260200160002060006101000a81548160ff02191690831515021790555060018160020160008282546107c19190611b40565b925050819055507fa2925e4595bf873fa82c22a1a89809777347023bf2b502d32710157a5eb8199c3382600201546040516107fd9291906117dc565b60405180910390a1505050565b600047905090565b6001818154811061082257600080fd5b906000526020600020016000915054906101000a900473ffffffffffffffffffffffffffffffffffffffff1681565b6001600281111561088b577f4e487b7100000000000000000000000000000000000000000000000000000000600052602160045260246000fd5b600960009054906101000a900460ff1660028111156108d3577f4e487b7100000000000000000000000000000000000000000000000000000000600052602160045260246000fd5b146109ee576000600a60008373ffffffffffffffffffffffffffffffffffffffff1673ffffffffffffffffffffffffffffffffffffffff168152602001908152602001600020541415610939576006600081548092919061093390611d02565b91905055505b34600a60008373ffffffffffffffffffffffffffffffffffffffff1673ffffffffffffffffffffffffffffffffffffffff16815260200190815260200160002060008282546109889190611b40565b9250508190555034600560008282546109a19190611b40565b925050819055507f5cdc4ab8d637538ead6cc1904d4160343656c8c82bd266635cfd31ac008fffe081346005546040516109dd93929190611805565b60405180910390a16109ed6111e3565b5b50565b60008054906101000a900473ffffffffffffffffffffffffffffffffffffffff1673ffffffffffffffffffffffffffffffffffffffff163373ffffffffffffffffffffffffffffffffffffffff1614610a7f576040517f08c379a0000000000000000000000000000000000000000000000000000000008152600401610a7690611915565b60405180910390fd5b6000600b60008381526020019081526020016000209050600015158160040160009054906101000a900460ff16151514610aee576040517f08c379a0000000000000000000000000000000000000000000000000000000008152600401610ae590611955565b60405180910390fd5b6000600390508082600201541015610b3b576040517f08c379a0000000000000000000000000000000000000000000000000000000008152600401610b3290611975565b60405180910390fd5b8160040160019054906101000a900473ffffffffffffffffffffffffffffffffffffffff1673ffffffffffffffffffffffffffffffffffffffff166108fc83600101549081150290604051600060405180830381858888f19350505050158015610ba9573d6000803e3d6000fd5b5060018260040160006101000a81548160ff0219169083151502179055507f2af8d60b878c5e8de57c8ff96e03c6cfab6de26b47e989757345cc1dceaac99883836000018460010154856002015460018760040160019054906101000a900473ffffffffffffffffffffffffffffffffffffffff16604051610c3096959493929190611a18565b60405180910390a1505050565b60025481565b600b602052806000526040600020600091509050806000018054610c6690611c9f565b80601f0160208091040260200160405190810160405280929190818152602001828054610c9290611c9f565b8015610cdf5780601f10610cb457610100808354040283529160200191610cdf565b820191906000526020600020905b815481529060010190602001808311610cc257829003601f168201915b5050505050908060010154908060020154908060040160009054906101000a900460ff16908060040160019054906101000a900473ffffffffffffffffffffffffffffffffffffffff16905085565b60008054906101000a900473ffffffffffffffffffffffffffffffffffffffff1673ffffffffffffffffffffffffffffffffffffffff163373ffffffffffffffffffffffffffffffffffffffff1614610dbc576040517f08c379a0000000000000000000000000000000000000000000000000000000008152600401610db390611915565b60405180910390fd5b6000600b6000600c5481526020019081526020016000209050600c6000815480929190610de890611d02565b919050555083816000019080519060200190610e059291906112a3565b508281600101819055506000816002018190555060008160040160006101000a81548160ff021916908315150217905550818160040160016101000a81548173ffffffffffffffffffffffffffffffffffffffff021916908373ffffffffffffffffffffffffffffffffffffffff1602179055507f9883a4e4f8698e4cc93bafb8d0d2376cb8c51dd322cb9fd80d02c691fcdea503600c54858560008087604051610eb5969594939291906119b0565b60405180910390a1610ec56111e3565b50505050565b600c5481565b60045481565b60606001805480602002602001604051908101604052809291908181526020018280548015610f5b57602002820191906000526020600020905b8160009054906101000a900473ffffffffffffffffffffffffffffffffffffffff1673ffffffffffffffffffffffffffffffffffffffff1681526020019060010190808311610f11575b5050505050905090565b600960009054906101000a900460ff1681565b60078054610f8590611c9f565b80601f0160208091040260200160405190810160405280929190818152602001828054610fb190611c9f565b8015610ffe5780601f10610fd357610100808354040283529160200191610ffe565b820191906000526020600020905b815481529060010190602001808311610fe157829003601f168201915b505050505081565b60055481565b6001600960006101000a81548160ff02191690836002811115611058577f4e487b7100000000000000000000000000000000000000000000000000000000600052602160045260246000fd5b0217905550565b60008060008060008060608060008060008054906101000a900473ffffffffffffffffffffffffffffffffffffffff1699506002549850600354975060045496504295506005549450600780546110b590611c9f565b80601f01602080910402602001604051908101604052809291908181526020018280546110e190611c9f565b801561112e5780601f106111035761010080835404028352916020019161112e565b820191906000526020600020905b81548152906001019060200180831161111157829003601f168201915b505050505093506008805461114290611c9f565b80601f016020809104026020016040519081016040528092919081815260200182805461116e90611c9f565b80156111bb5780601f10611190576101008083540402835291602001916111bb565b820191906000526020600020905b81548152906001019060200180831161119e57829003601f168201915b50505050509250600960009054906101000a900460ff16915047905090919293949596979899565b60045460055410611244576002600960006101000a81548160ff0219169083600281111561123a577f4e487b7100000000000000000000000000000000000000000000000000000000600052602160045260246000fd5b02179055506112a1565b6003544211156112a0576001600960006101000a81548160ff0219169083600281111561129a577f4e487b7100000000000000000000000000000000000000000000000000000000600052602160045260246000fd5b02179055505b5b565b8280546112af90611c9f565b90600052602060002090601f0160209004810192826112d15760008555611318565b82601f106112ea57805160ff1916838001178555611318565b82800160010185558215611318579182015b828111156113175782518255916020019190600101906112fc565b5b5090506113259190611329565b5090565b5b8082111561134257600081600090555060010161132a565b5090565b600061135961135484611aa5565b611a80565b90508281526020810184848401111561137157600080fd5b61137c848285611c5d565b509392505050565b60008135905061139381611f6b565b92915050565b6000813590506113a881611f82565b92915050565b600082601f8301126113bf57600080fd5b81356113cf848260208601611346565b91505092915050565b6000813590506113e781611f99565b92915050565b6000602082840312156113ff57600080fd5b600061140d84828501611384565b91505092915050565b60008060006060848603121561142b57600080fd5b600084013567ffffffffffffffff81111561144557600080fd5b611451868287016113ae565b9350506020611462868287016113d8565b925050604061147386828701611399565b9150509250925092565b60006020828403121561148f57600080fd5b600061149d848285016113d8565b91505092915050565b60006114b283836114dc565b60208301905092915050565b6114c781611c03565b82525050565b6114d681611ba8565b82525050565b6114e581611b96565b82525050565b6114f481611b96565b82525050565b600061150582611afb565b61150f8185611b1e565b935061151a83611ad6565b8060005b8381101561154b57815161153288826114a6565b975061153d83611b11565b92505060018101905061151e565b5085935050505092915050565b61156181611bba565b82525050565b61157081611c15565b82525050565b61157f81611c27565b82525050565b600061159082611b06565b61159a8185611b2f565b93506115aa818560208601611c6c565b6115b381611e07565b840191505092915050565b600081546115cb81611c9f565b6115d58186611b2f565b945060018216600081146115f0576001811461160257611635565b60ff1983168652602086019350611635565b61160b85611ae6565b60005b8381101561162d5781548189015260018201915060208101905061160e565b808801955050505b50505092915050565b600061164b602883611b2f565b915061165682611e18565b604082019050919050565b600061166e602f83611b2f565b915061167982611e67565b604082019050919050565b6000611691601283611b2f565b915061169c82611eb6565b602082019050919050565b60006116b4601983611b2f565b91506116bf82611edf565b602082019050919050565b60006116d7602383611b2f565b91506116e282611f08565b604082019050919050565b6116f681611bf9565b82525050565b600060208201905061171160008301846114eb565b92915050565b600060208201905061172c60008301846114cd565b92915050565b600061014082019050611748600083018d6114cd565b611755602083018c6116ed565b611762604083018b6116ed565b61176f606083018a6116ed565b61177c60808301896116ed565b61178960a08301886116ed565b81810360c083015261179b8187611585565b905081810360e08301526117af8186611585565b90506117bf610100830185611567565b6117cd6101208301846116ed565b9b9a5050505050505050505050565b60006040820190506117f160008301856114eb565b6117fe60208301846116ed565b9392505050565b600060608201905061181a60008301866114eb565b61182760208301856116ed565b61183460408301846116ed565b949350505050565b6000602082019050818103600083015261185681846114fa565b905092915050565b60006020820190506118736000830184611567565b92915050565b600060208201905081810360008301526118938184611585565b905092915050565b600060a08201905081810360008301526118b58188611585565b90506118c460208301876116ed565b6118d160408301866116ed565b6118de6060830185611558565b6118eb60808301846114cd565b9695505050505050565b6000602082019050818103600083015261190e8161163e565b9050919050565b6000602082019050818103600083015261192e81611661565b9050919050565b6000602082019050818103600083015261194e81611684565b9050919050565b6000602082019050818103600083015261196e816116a7565b9050919050565b6000602082019050818103600083015261198e816116ca565b9050919050565b60006020820190506119aa60008301846116ed565b92915050565b600060c0820190506119c560008301896116ed565b81810360208301526119d78188611585565b90506119e660408301876116ed565b6119f36060830186611576565b611a006080830185611558565b611a0d60a08301846114be565b979650505050505050565b600060c082019050611a2d60008301896116ed565b8181036020830152611a3f81886115be565b9050611a4e60408301876116ed565b611a5b60608301866116ed565b611a686080830185611558565b611a7560a08301846114be565b979650505050505050565b6000611a8a611a9b565b9050611a968282611cd1565b919050565b6000604051905090565b600067ffffffffffffffff821115611ac057611abf611dd8565b5b611ac982611e07565b9050602081019050919050565b6000819050602082019050919050565b60008190508160005260206000209050919050565b600081519050919050565b600081519050919050565b6000602082019050919050565b600082825260208201905092915050565b600082825260208201905092915050565b6000611b4b82611bf9565b9150611b5683611bf9565b9250827fffffffffffffffffffffffffffffffffffffffffffffffffffffffffffffffff03821115611b8b57611b8a611d4b565b5b828201905092915050565b6000611ba182611bd9565b9050919050565b6000611bb382611bd9565b9050919050565b60008115159050919050565b6000819050611bd482611f57565b919050565b600073ffffffffffffffffffffffffffffffffffffffff82169050919050565b6000819050919050565b6000611c0e82611c39565b9050919050565b6000611c2082611bc6565b9050919050565b6000611c3282611bf9565b9050919050565b6000611c4482611c4b565b9050919050565b6000611c5682611bd9565b9050919050565b82818337600083830152505050565b60005b83811015611c8a578082015181840152602081019050611c6f565b83811115611c99576000848401525b50505050565b60006002820490506001821680611cb757607f821691505b60208210811415611ccb57611cca611da9565b5b50919050565b611cda82611e07565b810181811067ffffffffffffffff82111715611cf957611cf8611dd8565b5b80604052505050565b6000611d0d82611bf9565b91507fffffffffffffffffffffffffffffffffffffffffffffffffffffffffffffffff821415611d4057611d3f611d4b565b5b600182019050919050565b7f4e487b7100000000000000000000000000000000000000000000000000000000600052601160045260246000fd5b7f4e487b7100000000000000000000000000000000000000000000000000000000600052602160045260246000fd5b7f4e487b7100000000000000000000000000000000000000000000000000000000600052602260045260246000fd5b7f4e487b7100000000000000000000000000000000000000000000000000000000600052604160045260246000fd5b6000601f19601f8301169050919050565b7f4f6e6c7920747275737465652063616e20706572666f726d2074686973206f7060008201527f65726174696f6e21000000000000000000000000000000000000000000000000602082015250565b7f596f7520646f6e7420686176652061636365737320746f20706572666f726d2060008201527f74686973206f7065726174696f6e210000000000000000000000000000000000602082015250565b7f596f7520616c726561647920766f746564210000000000000000000000000000600082015250565b7f5265717565737420616c726561647920636f6d706c6574656400000000000000600082015250565b7f496e73756666696369656e7420766f74657320666f722074686973207265717560008201527f6573740000000000000000000000000000000000000000000000000000000000602082015250565b60038110611f6857611f67611d7a565b5b50565b611f7481611b96565b8114611f7f57600080fd5b50565b611f8b81611ba8565b8114611f9657600080fd5b50565b611fa281611bf9565b8114611fad57600080fd5b5056fea26469706673582212209ad836dbdf6e23d68fed0657cd6294d6c17249f0c16d10a5c54f6c6ad1e540b164736f6c63430008040033",
  "linkReferences": {},
  "deployedLinkReferences": {}
}