{
  "_format": "hh-sol-artifact-1",
  "contractName": "Project",
  "sourceName": "contracts/Project.sol",
  "abi": [
    {
      "inputs": [
        {
          "internalType": "address",
          "name": "_creator",
          "type": "address"
        },
        {
          "internalType": "uint256",
          "name": "_minimumContribution",
          "type": "uint256"
        },
        {
          "internalType": "uint256",
          "name": "_deadline",
          "type": "uint256"
        },
        {
          "internalType": "uint256",
          "name": "_targetContribution",
          "type": "uint256"
        },
        {
          "internalType": "string",
          "name": "_projectTitle",
          "type": "string"
        },
        {
          "internalType": "string",
          "name": "_projectDes",
          "type": "string"
        }
      ],
      "stateMutability": "nonpayable",
      "type": "constructor"
    },
    {
      "anonymous": false,
      "inputs": [
        {
          "indexed": false,
          "internalType": "uint256",
          "name": "requestId",
          "type": "uint256"
        },
        {
          "indexed": false,
          "internalType": "string",
          "name": "description",
          "type": "string"
        },
        {
          "indexed": false,
          "internalType": "uint256",
          "name": "amount",
          "type": "uint256"
        },
        {
          "indexed": false,
          "internalType": "uint256",
          "name": "yesVotes",
          "type": "uint256"
        },
        {
          "indexed": false,
          "internalType": "uint256",
          "name": "noVotes",
          "type": "uint256"
        },
        {
          "indexed": false,
          "internalType": "bool",
          "name": "isCompleted",
          "type": "bool"
        },
        {
          "indexed": false,
          "internalType": "address",
          "name": "reciptent",
          "type": "address"
        }
      ],
      "name": "AmountWithdrawSuccessful",
      "type": "event"
    },
    {
      "anonymous": false,
      "inputs": [
        {
          "indexed": false,
          "internalType": "address",
          "name": "contributor",
          "type": "address"
        },
        {
          "indexed": false,
          "internalType": "enum Project.State",
          "name": "state",
          "type": "uint8"
        }
      ],
      "name": "Expired",
      "type": "event"
    },
    {
      "anonymous": false,
      "inputs": [
        {
          "indexed": false,
          "internalType": "address",
          "name": "contributor",
          "type": "address"
        },
        {
          "indexed": false,
          "internalType": "uint256",
          "name": "amount",
          "type": "uint256"
        },
        {
          "indexed": false,
          "internalType": "uint256",
          "name": "currentTotal",
          "type": "uint256"
        }
      ],
      "name": "FundingReceived",
      "type": "event"
    },
    {
      "anonymous": false,
      "inputs": [
        {
          "indexed": false,
          "internalType": "address",
          "name": "contributor",
          "type": "address"
        },
        {
          "indexed": false,
          "internalType": "uint256",
          "name": "amount",
          "type": "uint256"
        }
      ],
      "name": "Refund",
      "type": "event"
    },
    {
      "anonymous": false,
      "inputs": [
        {
          "indexed": false,
          "internalType": "uint256",
          "name": "requestId",
          "type": "uint256"
        },
        {
          "indexed": false,
          "internalType": "string",
          "name": "description",
          "type": "string"
        },
        {
          "indexed": false,
          "internalType": "uint256",
          "name": "amount",
          "type": "uint256"
        },
        {
          "indexed": false,
          "internalType": "uint256",
          "name": "yesVotes",
          "type": "uint256"
        },
        {
          "indexed": false,
          "internalType": "uint256",
          "name": "noVotes",
          "type": "uint256"
        },
        {
          "indexed": false,
          "internalType": "bool",
          "name": "isCompleted",
          "type": "bool"
        },
        {
          "indexed": false,
          "internalType": "address",
          "name": "reciptent",
          "type": "address"
        }
      ],
      "name": "WithdrawRequestCreated",
      "type": "event"
    },
    {
      "anonymous": false,
      "inputs": [
        {
          "indexed": false,
          "internalType": "address",
          "name": "voter",
          "type": "address"
        },
        {
          "indexed": false,
          "internalType": "uint256",
          "name": "totalVote",
          "type": "uint256"
        }
      ],
      "name": "WithdrawVote",
      "type": "event"
    },
    {
      "inputs": [
        {
          "internalType": "address",
          "name": "_contributor",
          "type": "address"
        }
      ],
      "name": "contribute",
      "outputs": [],
      "stateMutability": "payable",
      "type": "function"
    },
    {
      "inputs": [
        {
          "internalType": "address",
          "name": "",
          "type": "address"
        }
      ],
      "name": "contributors",
      "outputs": [
        {
          "internalType": "uint256",
          "name": "",
          "type": "uint256"
        }
      ],
      "stateMutability": "view",
      "type": "function"
    },
    {
      "inputs": [],
      "name": "creator",
      "outputs": [
        {
          "internalType": "address payable",
          "name": "",
          "type": "address"
        }
      ],
      "stateMutability": "view",
      "type": "function"
    },
    {
      "inputs": [],
      "name": "deadline",
      "outputs": [
        {
          "internalType": "uint256",
          "name": "",
          "type": "uint256"
        }
      ],
      "stateMutability": "view",
      "type": "function"
    },
    {
      "inputs": [],
      "name": "getContractBalance",
      "outputs": [
        {
          "internalType": "uint256",
          "name": "",
          "type": "uint256"
        }
      ],
      "stateMutability": "view",
      "type": "function"
    },
    {
      "inputs": [],
      "name": "getProjectDetails",
      "outputs": [
        {
          "internalType": "address payable",
          "name": "projectStarter",
          "type": "address"
        },
        {
          "internalType": "uint256",
          "name": "minContribution",
          "type": "uint256"
        },
        {
          "internalType": "uint256",
          "name": "projectDeadline",
          "type": "uint256"
        },
        {
          "internalType": "uint256",
          "name": "goalAmount",
          "type": "uint256"
        },
        {
          "internalType": "uint256",
          "name": "completedTime",
          "type": "uint256"
        },
        {
          "internalType": "uint256",
          "name": "currentAmount",
          "type": "uint256"
        },
        {
          "internalType": "string",
          "name": "title",
          "type": "string"
        },
        {
          "internalType": "string",
          "name": "desc",
          "type": "string"
        },
        {
          "internalType": "enum Project.State",
          "name": "currentState",
          "type": "uint8"
        },
        {
          "internalType": "uint256",
          "name": "balance",
          "type": "uint256"
        }
      ],
      "stateMutability": "view",
      "type": "function"
    },
    {
      "inputs": [],
      "name": "getTrustees",
      "outputs": [
        {
          "internalType": "address[]",
          "name": "",
          "type": "address[]"
        }
      ],
      "stateMutability": "view",
      "type": "function"
    },
    {
      "inputs": [],
      "name": "minimumContribution",
      "outputs": [
        {
          "internalType": "uint256",
          "name": "",
          "type": "uint256"
        }
      ],
      "stateMutability": "view",
      "type": "function"
    },
    {
      "inputs": [],
      "name": "noOfContributors",
      "outputs": [
        {
          "internalType": "uint256",
          "name": "",
          "type": "uint256"
        }
      ],
      "stateMutability": "view",
      "type": "function"
    },
    {
      "inputs": [],
      "name": "numOfWithdrawRequests",
      "outputs": [
        {
          "internalType": "uint256",
          "name": "",
          "type": "uint256"
        }
      ],
      "stateMutability": "view",
      "type": "function"
    },
    {
      "inputs": [],
      "name": "projectDes",
      "outputs": [
        {
          "internalType": "string",
          "name": "",
          "type": "string"
        }
      ],
      "stateMutability": "view",
      "type": "function"
    },
    {
      "inputs": [],
      "name": "projectTitle",
      "outputs": [
        {
          "internalType": "string",
          "name": "",
          "type": "string"
        }
      ],
      "stateMutability": "view",
      "type": "function"
    },
    {
      "inputs": [],
      "name": "raisedAmount",
      "outputs": [
        {
          "internalType": "uint256",
          "name": "",
          "type": "uint256"
        }
      ],
      "stateMutability": "view",
      "type": "function"
    },
    {
      "inputs": [],
      "name": "requestRefund",
      "outputs": [
        {
          "internalType": "bool",
          "name": "",
          "type": "bool"
        }
      ],
      "stateMutability": "nonpayable",
      "type": "function"
    },
    {
      "inputs": [],
      "name": "state",
      "outputs": [
        {
          "internalType": "enum Project.State",
          "name": "",
          "type": "uint8"
        }
      ],
      "stateMutability": "view",
      "type": "function"
    },
    {
      "inputs": [],
      "name": "targetContribution",
      "outputs": [
        {
          "internalType": "uint256",
          "name": "",
          "type": "uint256"
        }
      ],
      "stateMutability": "view",
      "type": "function"
    },
    {
      "inputs": [
        {
          "internalType": "uint256",
          "name": "",
          "type": "uint256"
        }
      ],
      "name": "trustees",
      "outputs": [
        {
          "internalType": "address",
          "name": "",
          "type": "address"
        }
      ],
      "stateMutability": "view",
      "type": "function"
    },
    {
      "inputs": [
        {
          "internalType": "uint256",
          "name": "_requestId",
          "type": "uint256"
        },
        {
          "internalType": "bool",
          "name": "_vote",
          "type": "bool"
        }
      ],
      "name": "trusteesVoteWithdrawRequest",
      "outputs": [],
      "stateMutability": "nonpayable",
      "type": "function"
    },
    {
      "inputs": [
        {
          "internalType": "uint256",
          "name": "_requestId",
          "type": "uint256"
        }
      ],
      "name": "withdrawFunding",
      "outputs": [],
      "stateMutability": "nonpayable",
      "type": "function"
    },
    {
      "inputs": [
        {
          "internalType": "string",
          "name": "_description",
          "type": "string"
        },
        {
          "internalType": "uint256",
          "name": "_amount",
          "type": "uint256"
        },
        {
          "internalType": "address payable",
          "name": "_reciptent",
          "type": "address"
        }
      ],
      "name": "withdrawRequest",
      "outputs": [],
      "stateMutability": "nonpayable",
      "type": "function"
    },
    {
      "inputs": [
        {
          "internalType": "uint256",
          "name": "",
          "type": "uint256"
        }
      ],
      "name": "withdrawRequests",
      "outputs": [
        {
          "internalType": "string",
          "name": "description",
          "type": "string"
        },
        {
          "internalType": "uint256",
          "name": "amount",
          "type": "uint256"
        },
        {
          "internalType": "uint256",
          "name": "yesVotes",
          "type": "uint256"
        },
        {
          "internalType": "uint256",
          "name": "noVotes",
          "type": "uint256"
        },
        {
          "internalType": "bool",
          "name": "isCompleted",
          "type": "bool"
        },
        {
          "internalType": "address payable",
          "name": "reciptent",
          "type": "address"
        }
      ],
      "stateMutability": "view",
      "type": "function"
    }
  ],
  "bytecode": "0x60806040526000600960006101000a81548160ff021916908360028111156200002d576200002c62000683565b5b02179055506000600c553480156200004457600080fd5b5060405162002b6538038062002b6583398181016040528101906200006a91906200046a565b856000806101000a81548173ffffffffffffffffffffffffffffffffffffffff021916908373ffffffffffffffffffffffffffffffffffffffff1602179055508460028190555083600381905550826004819055508160079080519060200190620000d79291906200027f565b508060089080519060200190620000f09291906200027f565b5060006005819055506040518060a001604052807304fb8aa93070ccb375eca12e98d6a995555e201773ffffffffffffffffffffffffffffffffffffffff1673ffffffffffffffffffffffffffffffffffffffff16815260200173e0b0d918dcefe0f414b77a2d81850ea8776a34a973ffffffffffffffffffffffffffffffffffffffff1673ffffffffffffffffffffffffffffffffffffffff16815260200173ba83d2d5f76f34d0592452d3441902016878cb1a73ffffffffffffffffffffffffffffffffffffffff1673ffffffffffffffffffffffffffffffffffffffff16815260200173cff2ee28902259e8d00e1198e5565eb946f2a89773ffffffffffffffffffffffffffffffffffffffff1673ffffffffffffffffffffffffffffffffffffffff16815260200173316fd248cef6aa4d17267cf2b8f2065ba71feb7f73ffffffffffffffffffffffffffffffffffffffff1673ffffffffffffffffffffffffffffffffffffffff1681525060019060056200027292919062000310565b5050505050505062000769565b8280546200028d9062000617565b90600052602060002090601f016020900481019282620002b15760008555620002fd565b82601f10620002cc57805160ff1916838001178555620002fd565b82800160010185558215620002fd579182015b82811115620002fc578251825591602001919060010190620002df565b5b5090506200030c91906200039f565b5090565b8280548282559060005260206000209081019282156200038c579160200282015b828111156200038b5782518260006101000a81548173ffffffffffffffffffffffffffffffffffffffff021916908373ffffffffffffffffffffffffffffffffffffffff1602179055509160200191906001019062000331565b5b5090506200039b91906200039f565b5090565b5b80821115620003ba576000816000905550600101620003a0565b5090565b6000620003d5620003cf846200056d565b62000544565b905082815260208101848484011115620003f457620003f362000715565b5b62000401848285620005e1565b509392505050565b6000815190506200041a8162000735565b92915050565b600082601f83011262000438576200043762000710565b5b81516200044a848260208601620003be565b91505092915050565b60008151905062000464816200074f565b92915050565b60008060008060008060c087890312156200048a57620004896200071f565b5b60006200049a89828a0162000409565b9650506020620004ad89828a0162000453565b9550506040620004c089828a0162000453565b9450506060620004d389828a0162000453565b935050608087015167ffffffffffffffff811115620004f757620004f66200071a565b5b6200050589828a0162000420565b92505060a087015167ffffffffffffffff8111156200052957620005286200071a565b5b6200053789828a0162000420565b9150509295509295509295565b60006200055062000563565b90506200055e82826200064d565b919050565b6000604051905090565b600067ffffffffffffffff8211156200058b576200058a620006e1565b5b620005968262000724565b9050602081019050919050565b6000620005b082620005b7565b9050919050565b600073ffffffffffffffffffffffffffffffffffffffff82169050919050565b6000819050919050565b60005b8381101562000601578082015181840152602081019050620005e4565b8381111562000611576000848401525b50505050565b600060028204905060018216806200063057607f821691505b60208210811415620006475762000646620006b2565b5b50919050565b620006588262000724565b810181811067ffffffffffffffff821117156200067a5762000679620006e1565b5b80604052505050565b7f4e487b7100000000000000000000000000000000000000000000000000000000600052602160045260246000fd5b7f4e487b7100000000000000000000000000000000000000000000000000000000600052602260045260246000fd5b7f4e487b7100000000000000000000000000000000000000000000000000000000600052604160045260246000fd5b600080fd5b600080fd5b600080fd5b600080fd5b6000601f19601f8301169050919050565b6200074081620005a3565b81146200074c57600080fd5b50565b6200075a81620005d7565b81146200076657600080fd5b50565b6123ec80620007796000396000f3fe60806040526004361061012a5760003560e01c806373e888fd116100ab578063beffaf091161006f578063beffaf09146103da578063c19d93fb14610405578063c3e20c9f14610430578063c59ee1dc1461045b578063d5cef13314610486578063ff3a9c7e146104b15761012a565b806373e888fd146102fb578063937e09b114610317578063992a7dfb14610342578063b40141bf14610384578063b82c86d6146103af5761012a565b80634ccdc493116100f25780634ccdc493146102165780634e260f6f1461023f5780636599e0151461026a5780636f9fb98a14610293578063717d63a4146102be5761012a565b806302d05d3f1461012f57806303c29d581461015a5780631f6d49421461018557806329dcb0cf146101c25780633697f055146101ed575b600080fd5b34801561013b57600080fd5b506101446104e5565b6040516101519190611a35565b60405180910390f35b34801561016657600080fd5b5061016f610509565b60405161017c9190611bb2565b60405180910390f35b34801561019157600080fd5b506101ac60048036038101906101a79190611698565b610597565b6040516101b99190611cfc565b60405180910390f35b3480156101ce57600080fd5b506101d76105af565b6040516101e49190611cfc565b60405180910390f35b3480156101f957600080fd5b50610214600480360381019061020f9190611734565b6105b5565b005b34801561022257600080fd5b5061023d60048036038101906102389190611761565b6108c7565b005b34801561024b57600080fd5b50610254610b39565b6040516102619190611cfc565b60405180910390f35b34801561027657600080fd5b50610291600480360381019061028c91906116c5565b610b3f565b005b34801561029f57600080fd5b506102a8610ce9565b6040516102b59190611cfc565b60405180910390f35b3480156102ca57600080fd5b506102e560048036038101906102e09190611734565b610cf1565b6040516102f29190611a1a565b60405180910390f35b61031560048036038101906103109190611698565b610d30565b005b34801561032357600080fd5b5061032c610e84565b6040516103399190611cfc565b60405180910390f35b34801561034e57600080fd5b5061036960048036038101906103649190611734565b610e8a565b60405161037b96959493929190611bd4565b60405180910390f35b34801561039057600080fd5b50610399610f7b565b6040516103a69190611cfc565b60405180910390f35b3480156103bb57600080fd5b506103c4610f81565b6040516103d19190611cfc565b60405180910390f35b3480156103e657600080fd5b506103ef610f87565b6040516103fc9190611b5a565b60405180910390f35b34801561041157600080fd5b5061041a611015565b6040516104279190611b97565b60405180910390f35b34801561043c57600080fd5b50610445611028565b6040516104529190611bb2565b60405180910390f35b34801561046757600080fd5b506104706110b6565b60405161047d9190611cfc565b60405180910390f35b34801561049257600080fd5b5061049b6110bc565b6040516104a89190611b7c565b60405180910390f35b3480156104bd57600080fd5b506104c6611256565b6040516104dc9a99989796959493929190611a50565b60405180910390f35b60008054906101000a900473ffffffffffffffffffffffffffffffffffffffff1681565b6008805461051690612022565b80601f016020809104026020016040519081016040528092919081815260200182805461054290612022565b801561058f5780601f106105645761010080835404028352916020019161058f565b820191906000526020600020905b81548152906001019060200180831161057257829003601f168201915b505050505081565b600a6020528060005260406000206000915090505481565b60035481565b60008054906101000a900473ffffffffffffffffffffffffffffffffffffffff1673ffffffffffffffffffffffffffffffffffffffff163373ffffffffffffffffffffffffffffffffffffffff1614610643576040517f08c379a000000000000000000000000000000000000000000000000000000000815260040161063a90611c5c565b60405180910390fd5b6000600b60008381526020019081526020016000209050600015158160050160009054906101000a900460ff161515146106b2576040517f08c379a00000000000000000000000000000000000000000000000000000000081526004016106a990611cbc565b60405180910390fd5b6000600390506106c1836113da565b610700576040517f08c379a00000000000000000000000000000000000000000000000000000000081526004016106f790611cdc565b60405180910390fd5b80826002015410610813578160050160019054906101000a900473ffffffffffffffffffffffffffffffffffffffff1673ffffffffffffffffffffffffffffffffffffffff166108fc83600101549081150290604051600060405180830381858888f19350505050158015610779573d6000803e3d6000fd5b5060018260050160006101000a81548160ff0219169083151502179055507f7a5218350187d3ab901ae3c2001a4348ce5a2089ac30ce35d2fc55b53feac2a5838360000184600101548560020154866003015460018860050160019054906101000a900473ffffffffffffffffffffffffffffffffffffffff166040516108069796959493929190611d8d565b60405180910390a16108c2565b8160020154826003015411156108c15761082b6110bc565b5060018260050160006101000a81548160ff0219169083151502179055507f7a5218350187d3ab901ae3c2001a4348ce5a2089ac30ce35d2fc55b53feac2a5838360000184600101548560020154866003015460008860050160019054906101000a900473ffffffffffffffffffffffffffffffffffffffff166040516108b89796959493929190611d8d565b60405180910390a15b5b505050565b6000805b600180549050811015610966573373ffffffffffffffffffffffffffffffffffffffff16600182815481106109035761090261215b565b5b9060005260206000200160009054906101000a900473ffffffffffffffffffffffffffffffffffffffff1673ffffffffffffffffffffffffffffffffffffffff1614156109535760019150610966565b808061095e90612085565b9150506108cb565b50806109a7576040517f08c379a000000000000000000000000000000000000000000000000000000000815260040161099e90611c3c565b60405180910390fd5b6000600b600085815260200190815260200160002090508060040160003373ffffffffffffffffffffffffffffffffffffffff1673ffffffffffffffffffffffffffffffffffffffff16815260200190815260200160002060009054906101000a900460ff1615610a4d576040517f08c379a0000000000000000000000000000000000000000000000000000000008152600401610a4490611c9c565b60405180910390fd5b8215610a7257806002016000815480929190610a6890612085565b9190505550610a8d565b806003016000815480929190610a8790612085565b91905055505b60018160040160003373ffffffffffffffffffffffffffffffffffffffff1673ffffffffffffffffffffffffffffffffffffffff16815260200190815260200160002060006101000a81548160ff0219169083151502179055507fa2925e4595bf873fa82c22a1a89809777347023bf2b502d32710157a5eb8199c3382600301548360020154610b1d9190611ec3565b604051610b2b929190611afa565b60405180910390a150505050565b60065481565b60008054906101000a900473ffffffffffffffffffffffffffffffffffffffff1673ffffffffffffffffffffffffffffffffffffffff163373ffffffffffffffffffffffffffffffffffffffff1614610bcd576040517f08c379a0000000000000000000000000000000000000000000000000000000008152600401610bc490611c5c565b60405180910390fd5b6000600b6000600c5481526020019081526020016000209050600c6000815480929190610bf990612085565b919050555083816000019080519060200190610c16929190611531565b50828160010181905550600081600201819055506000816003018190555060008160050160006101000a81548160ff021916908315150217905550818160050160016101000a81548173ffffffffffffffffffffffffffffffffffffffff021916908373ffffffffffffffffffffffffffffffffffffffff1602179055507f3009567e0613f3581563a052fea56298aca1363831103cf6f1cbb8bf5ae122f3600c548585600080600088604051610cd39796959493929190611d17565b60405180910390a1610ce36114bd565b50505050565b600047905090565b60018181548110610d0157600080fd5b906000526020600020016000915054906101000a900473ffffffffffffffffffffffffffffffffffffffff1681565b60016002811115610d4457610d436120fd565b5b600960009054906101000a900460ff166002811115610d6657610d656120fd565b5b14610e81576000600a60008373ffffffffffffffffffffffffffffffffffffffff1673ffffffffffffffffffffffffffffffffffffffff168152602001908152602001600020541415610dcc5760066000815480929190610dc690612085565b91905055505b34600a60008373ffffffffffffffffffffffffffffffffffffffff1673ffffffffffffffffffffffffffffffffffffffff1681526020019081526020016000206000828254610e1b9190611ec3565b925050819055503460056000828254610e349190611ec3565b925050819055507f5cdc4ab8d637538ead6cc1904d4160343656c8c82bd266635cfd31ac008fffe08134600554604051610e7093929190611b23565b60405180910390a1610e806114bd565b5b50565b60025481565b600b602052806000526040600020600091509050806000018054610ead90612022565b80601f0160208091040260200160405190810160405280929190818152602001828054610ed990612022565b8015610f265780601f10610efb57610100808354040283529160200191610f26565b820191906000526020600020905b815481529060010190602001808311610f0957829003601f168201915b5050505050908060010154908060020154908060030154908060050160009054906101000a900460ff16908060050160019054906101000a900473ffffffffffffffffffffffffffffffffffffffff16905086565b600c5481565b60045481565b6060600180548060200260200160405190810160405280929190818152602001828054801561100b57602002820191906000526020600020905b8160009054906101000a900473ffffffffffffffffffffffffffffffffffffffff1673ffffffffffffffffffffffffffffffffffffffff1681526020019060010190808311610fc1575b5050505050905090565b600960009054906101000a900460ff1681565b6007805461103590612022565b80601f016020809104026020016040519081016040528092919081815260200182805461106190612022565b80156110ae5780601f10611083576101008083540402835291602001916110ae565b820191906000526020600020905b81548152906001019060200180831161109157829003601f168201915b505050505081565b60055481565b600080600a60003373ffffffffffffffffffffffffffffffffffffffff1673ffffffffffffffffffffffffffffffffffffffff168152602001908152602001600020541161113f576040517f08c379a000000000000000000000000000000000000000000000000000000000815260040161113690611c7c565b60405180910390fd5b60003390506000600a60003373ffffffffffffffffffffffffffffffffffffffff1673ffffffffffffffffffffffffffffffffffffffff1681526020019081526020016000205490508173ffffffffffffffffffffffffffffffffffffffff166108fc829081150290604051600060405180830381858888f193505050501580156111ce573d6000803e3d6000fd5b506000600a60003373ffffffffffffffffffffffffffffffffffffffff1673ffffffffffffffffffffffffffffffffffffffff168152602001908152602001600020819055507fbb28353e4598c3b9199101a66e0989549b659a59a54d2c27fbb183f1932c8e6d3382604051611245929190611afa565b60405180910390a160019250505090565b60008060008060008060608060008060008054906101000a900473ffffffffffffffffffffffffffffffffffffffff1699506002549850600354975060045496504295506005549450600780546112ac90612022565b80601f01602080910402602001604051908101604052809291908181526020018280546112d890612022565b80156113255780601f106112fa57610100808354040283529160200191611325565b820191906000526020600020905b81548152906001019060200180831161130857829003601f168201915b505050505093506008805461133990612022565b80601f016020809104026020016040519081016040528092919081815260200182805461136590612022565b80156113b25780601f10611387576101008083540402835291602001916113b2565b820191906000526020600020905b81548152906001019060200180831161139557829003601f168201915b50505050509250600960009054906101000a900460ff16915047905090919293949596979899565b600080600b6000848152602001908152602001600020905060005b6001805490508110156114b1578160040160006001838154811061141c5761141b61215b565b5b9060005260206000200160009054906101000a900473ffffffffffffffffffffffffffffffffffffffff1673ffffffffffffffffffffffffffffffffffffffff1673ffffffffffffffffffffffffffffffffffffffff16815260200190815260200160002060009054906101000a900460ff1661149e576000925050506114b8565b80806114a990612085565b9150506113f5565b5060019150505b919050565b600454600554106114f8576002600960006101000a81548160ff021916908360028111156114ee576114ed6120fd565b5b021790555061152f565b60035442111561152e576001600960006101000a81548160ff02191690836002811115611528576115276120fd565b5b02179055505b5b565b82805461153d90612022565b90600052602060002090601f01602090048101928261155f57600085556115a6565b82601f1061157857805160ff19168380011785556115a6565b828001600101855582156115a6579182015b828111156115a557825182559160200191906001019061158a565b5b5090506115b391906115b7565b5090565b5b808211156115d05760008160009055506001016115b8565b5090565b60006115e76115e284611e28565b611e03565b905082815260208101848484011115611603576116026121be565b5b61160e848285611fe0565b509392505050565b6000813590506116258161235a565b92915050565b60008135905061163a81612371565b92915050565b60008135905061164f81612388565b92915050565b600082601f83011261166a576116696121b9565b5b813561167a8482602086016115d4565b91505092915050565b6000813590506116928161239f565b92915050565b6000602082840312156116ae576116ad6121c8565b5b60006116bc84828501611616565b91505092915050565b6000806000606084860312156116de576116dd6121c8565b5b600084013567ffffffffffffffff8111156116fc576116fb6121c3565b5b61170886828701611655565b935050602061171986828701611683565b925050604061172a8682870161162b565b9150509250925092565b60006020828403121561174a576117496121c8565b5b600061175884828501611683565b91505092915050565b60008060408385031215611778576117776121c8565b5b600061178685828601611683565b925050602061179785828601611640565b9150509250929050565b60006117ad83836117d7565b60208301905092915050565b6117c281611f86565b82525050565b6117d181611f2b565b82525050565b6117e081611f19565b82525050565b6117ef81611f19565b82525050565b600061180082611e7e565b61180a8185611ea1565b935061181583611e59565b8060005b8381101561184657815161182d88826117a1565b975061183883611e94565b925050600181019050611819565b5085935050505092915050565b61185c81611f3d565b82525050565b61186b81611f98565b82525050565b61187a81611faa565b82525050565b600061188b82611e89565b6118958185611eb2565b93506118a5818560208601611fef565b6118ae816121cd565b840191505092915050565b600081546118c681612022565b6118d08186611eb2565b945060018216600081146118eb57600181146118fd57611930565b60ff1983168652602086019350611930565b61190685611e69565b60005b8381101561192857815481890152600182019150602081019050611909565b808801955050505b50505092915050565b6000611946602883611eb2565b9150611951826121de565b604082019050919050565b6000611969602f83611eb2565b91506119748261222d565b604082019050919050565b600061198c602583611eb2565b91506119978261227c565b604082019050919050565b60006119af601283611eb2565b91506119ba826122cb565b602082019050919050565b60006119d2601983611eb2565b91506119dd826122f4565b602082019050919050565b60006119f5601b83611eb2565b9150611a008261231d565b602082019050919050565b611a1481611f7c565b82525050565b6000602082019050611a2f60008301846117e6565b92915050565b6000602082019050611a4a60008301846117c8565b92915050565b600061014082019050611a66600083018d6117c8565b611a73602083018c611a0b565b611a80604083018b611a0b565b611a8d606083018a611a0b565b611a9a6080830189611a0b565b611aa760a0830188611a0b565b81810360c0830152611ab98187611880565b905081810360e0830152611acd8186611880565b9050611add610100830185611862565b611aeb610120830184611a0b565b9b9a5050505050505050505050565b6000604082019050611b0f60008301856117e6565b611b1c6020830184611a0b565b9392505050565b6000606082019050611b3860008301866117e6565b611b456020830185611a0b565b611b526040830184611a0b565b949350505050565b60006020820190508181036000830152611b7481846117f5565b905092915050565b6000602082019050611b916000830184611853565b92915050565b6000602082019050611bac6000830184611862565b92915050565b60006020820190508181036000830152611bcc8184611880565b905092915050565b600060c0820190508181036000830152611bee8189611880565b9050611bfd6020830188611a0b565b611c0a6040830187611a0b565b611c176060830186611a0b565b611c246080830185611853565b611c3160a08301846117c8565b979650505050505050565b60006020820190508181036000830152611c5581611939565b9050919050565b60006020820190508181036000830152611c758161195c565b9050919050565b60006020820190508181036000830152611c958161197f565b9050919050565b60006020820190508181036000830152611cb5816119a2565b9050919050565b60006020820190508181036000830152611cd5816119c5565b9050919050565b60006020820190508181036000830152611cf5816119e8565b9050919050565b6000602082019050611d116000830184611a0b565b92915050565b600060e082019050611d2c600083018a611a0b565b8181036020830152611d3e8189611880565b9050611d4d6040830188611a0b565b611d5a6060830187611871565b611d676080830186611871565b611d7460a0830185611853565b611d8160c08301846117b9565b98975050505050505050565b600060e082019050611da2600083018a611a0b565b8181036020830152611db481896118b9565b9050611dc36040830188611a0b565b611dd06060830187611a0b565b611ddd6080830186611a0b565b611dea60a0830185611853565b611df760c08301846117b9565b98975050505050505050565b6000611e0d611e1e565b9050611e198282612054565b919050565b6000604051905090565b600067ffffffffffffffff821115611e4357611e4261218a565b5b611e4c826121cd565b9050602081019050919050565b6000819050602082019050919050565b60008190508160005260206000209050919050565b600081519050919050565b600081519050919050565b6000602082019050919050565b600082825260208201905092915050565b600082825260208201905092915050565b6000611ece82611f7c565b9150611ed983611f7c565b9250827fffffffffffffffffffffffffffffffffffffffffffffffffffffffffffffffff03821115611f0e57611f0d6120ce565b5b828201905092915050565b6000611f2482611f5c565b9050919050565b6000611f3682611f5c565b9050919050565b60008115159050919050565b6000819050611f5782612346565b919050565b600073ffffffffffffffffffffffffffffffffffffffff82169050919050565b6000819050919050565b6000611f9182611fbc565b9050919050565b6000611fa382611f49565b9050919050565b6000611fb582611f7c565b9050919050565b6000611fc782611fce565b9050919050565b6000611fd982611f5c565b9050919050565b82818337600083830152505050565b60005b8381101561200d578082015181840152602081019050611ff2565b8381111561201c576000848401525b50505050565b6000600282049050600182168061203a57607f821691505b6020821081141561204e5761204d61212c565b5b50919050565b61205d826121cd565b810181811067ffffffffffffffff8211171561207c5761207b61218a565b5b80604052505050565b600061209082611f7c565b91507fffffffffffffffffffffffffffffffffffffffffffffffffffffffffffffffff8214156120c3576120c26120ce565b5b600182019050919050565b7f4e487b7100000000000000000000000000000000000000000000000000000000600052601160045260246000fd5b7f4e487b7100000000000000000000000000000000000000000000000000000000600052602160045260246000fd5b7f4e487b7100000000000000000000000000000000000000000000000000000000600052602260045260246000fd5b7f4e487b7100000000000000000000000000000000000000000000000000000000600052603260045260246000fd5b7f4e487b7100000000000000000000000000000000000000000000000000000000600052604160045260246000fd5b600080fd5b600080fd5b600080fd5b600080fd5b6000601f19601f8301169050919050565b7f4f6e6c7920747275737465652063616e20706572666f726d2074686973206f7060008201527f65726174696f6e21000000000000000000000000000000000000000000000000602082015250565b7f596f7520646f6e7420686176652061636365737320746f20706572666f726d2060008201527f74686973206f7065726174696f6e210000000000000000000000000000000000602082015250565b7f596f7520646f6e74206861766520616e7920636f6e747269627574656420616d60008201527f6f756e7421000000000000000000000000000000000000000000000000000000602082015250565b7f596f7520616c726561647920766f746564210000000000000000000000000000600082015250565b7f5265717565737420616c726561647920636f6d706c6574656400000000000000600082015250565b7f4e6f7420616c6c207472757374656573206861766520766f7465640000000000600082015250565b60038110612357576123566120fd565b5b50565b61236381611f19565b811461236e57600080fd5b50565b61237a81611f2b565b811461238557600080fd5b50565b61239181611f3d565b811461239c57600080fd5b50565b6123a881611f7c565b81146123b357600080fd5b5056fea26469706673582212202fe27c8eb07c8bfa0481c6ae991084c324c245d6f164ca7c869a88b509d7c12364736f6c63430008060033",
  "linkReferences": {},
  "deployedLinkReferences": {}
}