{
  "_format": "hh-sol-artifact-1",
  "contractName": "Project",
  "sourceName": "contracts/Project.sol",
  "abi": [
    {
      "inputs": [
        {
          "internalType": "address",
          "name": "_creator",
          "type": "address"
        },
        {
          "internalType": "uint256",
          "name": "_minimumContribution",
          "type": "uint256"
        },
        {
          "internalType": "uint256",
          "name": "_deadline",
          "type": "uint256"
        },
        {
          "internalType": "uint256",
          "name": "_targetContribution",
          "type": "uint256"
        },
        {
          "internalType": "string",
          "name": "_projectTitle",
          "type": "string"
        },
        {
          "internalType": "string",
          "name": "_projectDes",
          "type": "string"
        }
      ],
      "stateMutability": "nonpayable",
      "type": "constructor"
    },
    {
      "anonymous": false,
      "inputs": [
        {
          "indexed": false,
          "internalType": "uint256",
          "name": "requestId",
          "type": "uint256"
        },
        {
          "indexed": false,
          "internalType": "string",
          "name": "description",
          "type": "string"
        },
        {
          "indexed": false,
          "internalType": "uint256",
          "name": "amount",
          "type": "uint256"
        },
        {
          "indexed": false,
          "internalType": "uint256",
          "name": "noOfVotes",
          "type": "uint256"
        },
        {
          "indexed": false,
          "internalType": "bool",
          "name": "isCompleted",
          "type": "bool"
        },
        {
          "indexed": false,
          "internalType": "address",
          "name": "reciptent",
          "type": "address"
        }
      ],
      "name": "AmountWithdrawSuccessful",
      "type": "event"
    },
    {
      "anonymous": false,
      "inputs": [
        {
          "indexed": false,
          "internalType": "address",
          "name": "contributor",
          "type": "address"
        },
        {
          "indexed": false,
          "internalType": "enum Project.State",
          "name": "state",
          "type": "uint8"
        }
      ],
      "name": "Expired",
      "type": "event"
    },
    {
      "anonymous": false,
      "inputs": [
        {
          "indexed": false,
          "internalType": "address",
          "name": "contributor",
          "type": "address"
        },
        {
          "indexed": false,
          "internalType": "uint256",
          "name": "amount",
          "type": "uint256"
        },
        {
          "indexed": false,
          "internalType": "uint256",
          "name": "currentTotal",
          "type": "uint256"
        }
      ],
      "name": "FundingReceived",
      "type": "event"
    },
    {
      "anonymous": false,
      "inputs": [
        {
          "indexed": false,
          "internalType": "uint256",
          "name": "requestId",
          "type": "uint256"
        },
        {
          "indexed": false,
          "internalType": "string",
          "name": "description",
          "type": "string"
        },
        {
          "indexed": false,
          "internalType": "uint256",
          "name": "amount",
          "type": "uint256"
        },
        {
          "indexed": false,
          "internalType": "uint256",
          "name": "noOfVotes",
          "type": "uint256"
        },
        {
          "indexed": false,
          "internalType": "bool",
          "name": "isCompleted",
          "type": "bool"
        },
        {
          "indexed": false,
          "internalType": "address",
          "name": "reciptent",
          "type": "address"
        }
      ],
      "name": "WithdrawRequestCreated",
      "type": "event"
    },
    {
      "anonymous": false,
      "inputs": [
        {
          "indexed": false,
          "internalType": "address",
          "name": "voter",
          "type": "address"
        },
        {
          "indexed": false,
          "internalType": "uint256",
          "name": "totalVote",
          "type": "uint256"
        }
      ],
      "name": "WithdrawVote",
      "type": "event"
    },
    {
      "inputs": [],
      "name": "completeAt",
      "outputs": [
        {
          "internalType": "uint256",
          "name": "",
          "type": "uint256"
        }
      ],
      "stateMutability": "view",
      "type": "function"
    },
    {
      "inputs": [
        {
          "internalType": "address",
          "name": "_contributor",
          "type": "address"
        }
      ],
      "name": "contribute",
      "outputs": [],
      "stateMutability": "payable",
      "type": "function"
    },
    {
      "inputs": [
        {
          "internalType": "address",
          "name": "",
          "type": "address"
        }
      ],
      "name": "contributiors",
      "outputs": [
        {
          "internalType": "uint256",
          "name": "",
          "type": "uint256"
        }
      ],
      "stateMutability": "view",
      "type": "function"
    },
    {
      "inputs": [
        {
          "internalType": "string",
          "name": "_description",
          "type": "string"
        },
        {
          "internalType": "uint256",
          "name": "_amount",
          "type": "uint256"
        },
        {
          "internalType": "address payable",
          "name": "_reciptent",
          "type": "address"
        }
      ],
      "name": "createWithdrawRequest",
      "outputs": [],
      "stateMutability": "nonpayable",
      "type": "function"
    },
    {
      "inputs": [],
      "name": "creator",
      "outputs": [
        {
          "internalType": "address payable",
          "name": "",
          "type": "address"
        }
      ],
      "stateMutability": "view",
      "type": "function"
    },
    {
      "inputs": [],
      "name": "deadline",
      "outputs": [
        {
          "internalType": "uint256",
          "name": "",
          "type": "uint256"
        }
      ],
      "stateMutability": "view",
      "type": "function"
    },
    {
      "inputs": [],
      "name": "getContractBalance",
      "outputs": [
        {
          "internalType": "uint256",
          "name": "",
          "type": "uint256"
        }
      ],
      "stateMutability": "view",
      "type": "function"
    },
    {
      "inputs": [],
      "name": "getProjectDetails",
      "outputs": [
        {
          "internalType": "address payable",
          "name": "projectStarter",
          "type": "address"
        },
        {
          "internalType": "uint256",
          "name": "minContribution",
          "type": "uint256"
        },
        {
          "internalType": "uint256",
          "name": "projectDeadline",
          "type": "uint256"
        },
        {
          "internalType": "uint256",
          "name": "goalAmount",
          "type": "uint256"
        },
        {
          "internalType": "uint256",
          "name": "completedTime",
          "type": "uint256"
        },
        {
          "internalType": "uint256",
          "name": "currentAmount",
          "type": "uint256"
        },
        {
          "internalType": "string",
          "name": "title",
          "type": "string"
        },
        {
          "internalType": "string",
          "name": "desc",
          "type": "string"
        },
        {
          "internalType": "enum Project.State",
          "name": "currentState",
          "type": "uint8"
        },
        {
          "internalType": "uint256",
          "name": "balance",
          "type": "uint256"
        }
      ],
      "stateMutability": "view",
      "type": "function"
    },
    {
      "inputs": [],
      "name": "minimumContribution",
      "outputs": [
        {
          "internalType": "uint256",
          "name": "",
          "type": "uint256"
        }
      ],
      "stateMutability": "view",
      "type": "function"
    },
    {
      "inputs": [],
      "name": "noOfContributers",
      "outputs": [
        {
          "internalType": "uint256",
          "name": "",
          "type": "uint256"
        }
      ],
      "stateMutability": "view",
      "type": "function"
    },
    {
      "inputs": [],
      "name": "numOfWithdrawRequests",
      "outputs": [
        {
          "internalType": "uint256",
          "name": "",
          "type": "uint256"
        }
      ],
      "stateMutability": "view",
      "type": "function"
    },
    {
      "inputs": [],
      "name": "projectDes",
      "outputs": [
        {
          "internalType": "string",
          "name": "",
          "type": "string"
        }
      ],
      "stateMutability": "view",
      "type": "function"
    },
    {
      "inputs": [],
      "name": "projectTitle",
      "outputs": [
        {
          "internalType": "string",
          "name": "",
          "type": "string"
        }
      ],
      "stateMutability": "view",
      "type": "function"
    },
    {
      "inputs": [],
      "name": "raisedAmount",
      "outputs": [
        {
          "internalType": "uint256",
          "name": "",
          "type": "uint256"
        }
      ],
      "stateMutability": "view",
      "type": "function"
    },
    {
      "inputs": [],
      "name": "setStateExpired",
      "outputs": [],
      "stateMutability": "nonpayable",
      "type": "function"
    },
    {
      "inputs": [],
      "name": "state",
      "outputs": [
        {
          "internalType": "enum Project.State",
          "name": "",
          "type": "uint8"
        }
      ],
      "stateMutability": "view",
      "type": "function"
    },
    {
      "inputs": [],
      "name": "targetContribution",
      "outputs": [
        {
          "internalType": "uint256",
          "name": "",
          "type": "uint256"
        }
      ],
      "stateMutability": "view",
      "type": "function"
    },
    {
      "inputs": [
        {
          "internalType": "uint256",
          "name": "_requestId",
          "type": "uint256"
        }
      ],
      "name": "voteWithdrawRequest",
      "outputs": [],
      "stateMutability": "nonpayable",
      "type": "function"
    },
    {
      "inputs": [
        {
          "internalType": "uint256",
          "name": "_requestId",
          "type": "uint256"
        }
      ],
      "name": "withdrawRequestedAmount",
      "outputs": [],
      "stateMutability": "nonpayable",
      "type": "function"
    },
    {
      "inputs": [
        {
          "internalType": "uint256",
          "name": "",
          "type": "uint256"
        }
      ],
      "name": "withdrawRequests",
      "outputs": [
        {
          "internalType": "string",
          "name": "description",
          "type": "string"
        },
        {
          "internalType": "uint256",
          "name": "amount",
          "type": "uint256"
        },
        {
          "internalType": "uint256",
          "name": "noOfVotes",
          "type": "uint256"
        },
        {
          "internalType": "bool",
          "name": "isCompleted",
          "type": "bool"
        },
        {
          "internalType": "address payable",
          "name": "reciptent",
          "type": "address"
        }
      ],
      "stateMutability": "view",
      "type": "function"
    }
  ],
  "bytecode": "0x60806040526000600960006101000a81548160ff0219169083600281111562000051577f4e487b7100000000000000000000000000000000000000000000000000000000600052602160045260246000fd5b02179055506000600c556103e8426200006b9190620003b3565b600d553480156200007b57600080fd5b50604051620022b8380380620022b88339818101604052810190620000a191906200028c565b856000806101000a81548173ffffffffffffffffffffffffffffffffffffffff021916908373ffffffffffffffffffffffffffffffffffffffff16021790555084600181905550836002819055508260038190555081600790805190602001906200010e9291906200013c565b508060089080519060200190620001279291906200013c565b506000600581905550505050505050620005c6565b8280546200014a9062000488565b90600052602060002090601f0160209004810192826200016e5760008555620001ba565b82601f106200018957805160ff1916838001178555620001ba565b82800160010185558215620001ba579182015b82811115620001b95782518255916020019190600101906200019c565b5b509050620001c99190620001cd565b5090565b5b80821115620001e8576000816000905550600101620001ce565b5090565b600062000203620001fd846200037d565b62000354565b9050828152602081018484840111156200021c57600080fd5b6200022984828562000452565b509392505050565b600081519050620002428162000592565b92915050565b600082601f8301126200025a57600080fd5b81516200026c848260208601620001ec565b91505092915050565b6000815190506200028681620005ac565b92915050565b60008060008060008060c08789031215620002a657600080fd5b6000620002b689828a0162000231565b9650506020620002c989828a0162000275565b9550506040620002dc89828a0162000275565b9450506060620002ef89828a0162000275565b935050608087015167ffffffffffffffff8111156200030d57600080fd5b6200031b89828a0162000248565b92505060a087015167ffffffffffffffff8111156200033957600080fd5b6200034789828a0162000248565b9150509295509295509295565b60006200036062000373565b90506200036e8282620004be565b919050565b6000604051905090565b600067ffffffffffffffff8211156200039b576200039a62000552565b5b620003a68262000581565b9050602081019050919050565b6000620003c08262000448565b9150620003cd8362000448565b9250817fffffffffffffffffffffffffffffffffffffffffffffffffffffffffffffffff0483118215151615620004095762000408620004f4565b5b828202905092915050565b6000620004218262000428565b9050919050565b600073ffffffffffffffffffffffffffffffffffffffff82169050919050565b6000819050919050565b60005b838110156200047257808201518184015260208101905062000455565b8381111562000482576000848401525b50505050565b60006002820490506001821680620004a157607f821691505b60208210811415620004b857620004b762000523565b5b50919050565b620004c98262000581565b810181811067ffffffffffffffff82111715620004eb57620004ea62000552565b5b80604052505050565b7f4e487b7100000000000000000000000000000000000000000000000000000000600052601160045260246000fd5b7f4e487b7100000000000000000000000000000000000000000000000000000000600052602260045260246000fd5b7f4e487b7100000000000000000000000000000000000000000000000000000000600052604160045260246000fd5b6000601f19601f8301169050919050565b6200059d8162000414565b8114620005a957600080fd5b50565b620005b78162000448565b8114620005c357600080fd5b50565b611ce280620005d66000396000f3fe60806040526004361061011f5760003560e01c8063937e09b1116100a0578063c19d93fb11610064578063c19d93fb146103bc578063c3e20c9f146103e7578063c59ee1dc14610412578063e85001e81461043d578063ff3a9c7e146104545761011f565b8063937e09b1146102d1578063992a7dfb146102fc578063a46752ae1461033d578063b40141bf14610366578063b82c86d6146103915761011f565b80634c4cea5a116100e75780634c4cea5a1461020d5780634e695a37146102385780636f9fb98a1461026157806373e888fd1461028c578063752e19f9146102a85761011f565b806302d05d3f1461012457806303c29d581461014f5780630a7713701461017a57806324274ee9146101b757806329dcb0cf146101e2575b600080fd5b34801561013057600080fd5b50610139610488565b6040516101469190611434565b60405180910390f35b34801561015b57600080fd5b506101646104ac565b6040516101719190611574565b60405180910390f35b34801561018657600080fd5b506101a1600480360381019061019c91906111aa565b61053a565b6040516101ae9190611690565b60405180910390f35b3480156101c357600080fd5b506101cc610552565b6040516101d99190611690565b60405180910390f35b3480156101ee57600080fd5b506101f7610558565b6040516102049190611690565b60405180910390f35b34801561021957600080fd5b5061022261055e565b60405161022f9190611690565b60405180910390f35b34801561024457600080fd5b5061025f600480360381019061025a919061123a565b610564565b005b34801561026d57600080fd5b50610276610749565b6040516102839190611690565b60405180910390f35b6102a660048036038101906102a191906111aa565b610751565b005b3480156102b457600080fd5b506102cf60048036038101906102ca919061123a565b6108e9565b005b3480156102dd57600080fd5b506102e6610b4e565b6040516102f39190611690565b60405180910390f35b34801561030857600080fd5b50610323600480360381019061031e919061123a565b610b54565b604051610334959493929190611596565b60405180910390f35b34801561034957600080fd5b50610364600480360381019061035f91906111d3565b610c3f565b005b34801561037257600080fd5b5061037b610dd4565b6040516103889190611690565b60405180910390f35b34801561039d57600080fd5b506103a6610dda565b6040516103b39190611690565b60405180910390f35b3480156103c857600080fd5b506103d1610de0565b6040516103de9190611559565b60405180910390f35b3480156103f357600080fd5b506103fc610df3565b6040516104099190611574565b60405180910390f35b34801561041e57600080fd5b50610427610e81565b6040516104349190611690565b60405180910390f35b34801561044957600080fd5b50610452610e87565b005b34801561046057600080fd5b50610469610eda565b60405161047f9a9998979695949392919061144f565b60405180910390f35b60008054906101000a900473ffffffffffffffffffffffffffffffffffffffff1681565b600880546104b990611992565b80601f01602080910402602001604051908101604052809291908181526020018280546104e590611992565b80156105325780601f1061050757610100808354040283529160200191610532565b820191906000526020600020905b81548152906001019060200180831161051557829003601f168201915b505050505081565b600a6020528060005260406000206000915090505481565b60065481565b60025481565b60045481565b6000600a60003373ffffffffffffffffffffffffffffffffffffffff1673ffffffffffffffffffffffffffffffffffffffff16815260200190815260200160002054116105e6576040517f08c379a00000000000000000000000000000000000000000000000000000000081526004016105dd906115f0565b60405180910390fd5b6000600b60008381526020019081526020016000209050600015158160030160003373ffffffffffffffffffffffffffffffffffffffff1673ffffffffffffffffffffffffffffffffffffffff16815260200190815260200160002060009054906101000a900460ff16151514610692576040517f08c379a000000000000000000000000000000000000000000000000000000000815260040161068990611630565b60405180910390fd5b60018160030160003373ffffffffffffffffffffffffffffffffffffffff1673ffffffffffffffffffffffffffffffffffffffff16815260200190815260200160002060006101000a81548160ff02191690831515021790555060018160020160008282546107019190611802565b925050819055507fa2925e4595bf873fa82c22a1a89809777347023bf2b502d32710157a5eb8199c33826002015460405161073d9291906114f9565b60405180910390a15050565b600047905090565b6001600281111561078b577f4e487b7100000000000000000000000000000000000000000000000000000000600052602160045260246000fd5b600960009054906101000a900460ff1660028111156107d3577f4e487b7100000000000000000000000000000000000000000000000000000000600052602160045260246000fd5b146108e6576000600a60008373ffffffffffffffffffffffffffffffffffffffff1673ffffffffffffffffffffffffffffffffffffffff1681526020019081526020016000205414156108395760066000815480929190610833906119f5565b91905055505b34600a60008373ffffffffffffffffffffffffffffffffffffffff1673ffffffffffffffffffffffffffffffffffffffff16815260200190815260200160002060008282546108889190611802565b9250508190555034600560008282546108a19190611802565b925050819055507f5cdc4ab8d637538ead6cc1904d4160343656c8c82bd266635cfd31ac008fffe081346005546040516108dd93929190611522565b60405180910390a15b50565b60008054906101000a900473ffffffffffffffffffffffffffffffffffffffff1673ffffffffffffffffffffffffffffffffffffffff163373ffffffffffffffffffffffffffffffffffffffff1614610977576040517f08c379a000000000000000000000000000000000000000000000000000000000815260040161096e90611610565b60405180910390fd5b6000600b60008381526020019081526020016000209050600015158160040160009054906101000a900460ff161515146109e6576040517f08c379a00000000000000000000000000000000000000000000000000000000081526004016109dd90611650565b60405180910390fd5b6000600160026006546109f99190611858565b610a039190611802565b90508082600201541015610a4c576040517f08c379a0000000000000000000000000000000000000000000000000000000008152600401610a4390611670565b60405180910390fd5b8160040160019054906101000a900473ffffffffffffffffffffffffffffffffffffffff1673ffffffffffffffffffffffffffffffffffffffff166108fc83600101549081150290604051600060405180830381858888f19350505050158015610aba573d6000803e3d6000fd5b5060018260040160006101000a81548160ff0219169083151502179055507f2af8d60b878c5e8de57c8ff96e03c6cfab6de26b47e989757345cc1dceaac99883836000018460010154856002015460018760040160019054906101000a900473ffffffffffffffffffffffffffffffffffffffff16604051610b4196959493929190611713565b60405180910390a1505050565b60015481565b600b602052806000526040600020600091509050806000018054610b7790611992565b80601f0160208091040260200160405190810160405280929190818152602001828054610ba390611992565b8015610bf05780601f10610bc557610100808354040283529160200191610bf0565b820191906000526020600020905b815481529060010190602001808311610bd357829003601f168201915b5050505050908060010154908060020154908060040160009054906101000a900460ff16908060040160019054906101000a900473ffffffffffffffffffffffffffffffffffffffff16905085565b60008054906101000a900473ffffffffffffffffffffffffffffffffffffffff1673ffffffffffffffffffffffffffffffffffffffff163373ffffffffffffffffffffffffffffffffffffffff1614610ccd576040517f08c379a0000000000000000000000000000000000000000000000000000000008152600401610cc490611610565b60405180910390fd5b6000600b6000600c5481526020019081526020016000209050600c6000815480929190610cf9906119f5565b919050555083816000019080519060200190610d16929190611060565b508281600101819055506000816002018190555060008160040160006101000a81548160ff021916908315150217905550818160040160016101000a81548173ffffffffffffffffffffffffffffffffffffffff021916908373ffffffffffffffffffffffffffffffffffffffff1602179055507f9883a4e4f8698e4cc93bafb8d0d2376cb8c51dd322cb9fd80d02c691fcdea503600c54858560008087604051610dc6969594939291906116ab565b60405180910390a150505050565b600c5481565b60035481565b600960009054906101000a900460ff1681565b60078054610e0090611992565b80601f0160208091040260200160405190810160405280929190818152602001828054610e2c90611992565b8015610e795780601f10610e4e57610100808354040283529160200191610e79565b820191906000526020600020905b815481529060010190602001808311610e5c57829003601f168201915b505050505081565b60055481565b6001600960006101000a81548160ff02191690836002811115610ed3577f4e487b7100000000000000000000000000000000000000000000000000000000600052602160045260246000fd5b0217905550565b60008060008060008060608060008060008054906101000a900473ffffffffffffffffffffffffffffffffffffffff1699506001549850600254975060035496506004549550600554945060078054610f3290611992565b80601f0160208091040260200160405190810160405280929190818152602001828054610f5e90611992565b8015610fab5780601f10610f8057610100808354040283529160200191610fab565b820191906000526020600020905b815481529060010190602001808311610f8e57829003601f168201915b5050505050935060088054610fbf90611992565b80601f0160208091040260200160405190810160405280929190818152602001828054610feb90611992565b80156110385780601f1061100d57610100808354040283529160200191611038565b820191906000526020600020905b81548152906001019060200180831161101b57829003601f168201915b50505050509250600960009054906101000a900460ff16915047905090919293949596979899565b82805461106c90611992565b90600052602060002090601f01602090048101928261108e57600085556110d5565b82601f106110a757805160ff19168380011785556110d5565b828001600101855582156110d5579182015b828111156110d45782518255916020019190600101906110b9565b5b5090506110e291906110e6565b5090565b5b808211156110ff5760008160009055506001016110e7565b5090565b6000611116611111846117a0565b61177b565b90508281526020810184848401111561112e57600080fd5b611139848285611950565b509392505050565b60008135905061115081611c67565b92915050565b60008135905061116581611c7e565b92915050565b600082601f83011261117c57600080fd5b813561118c848260208601611103565b91505092915050565b6000813590506111a481611c95565b92915050565b6000602082840312156111bc57600080fd5b60006111ca84828501611141565b91505092915050565b6000806000606084860312156111e857600080fd5b600084013567ffffffffffffffff81111561120257600080fd5b61120e8682870161116b565b935050602061121f86828701611195565b925050604061123086828701611156565b9150509250925092565b60006020828403121561124c57600080fd5b600061125a84828501611195565b91505092915050565b61126c816118f6565b82525050565b61127b8161189b565b82525050565b61128a81611889565b82525050565b611299816118ad565b82525050565b6112a881611908565b82525050565b6112b78161191a565b82525050565b60006112c8826117e6565b6112d281856117f1565b93506112e281856020860161195f565b6112eb81611b29565b840191505092915050565b6000815461130381611992565b61130d81866117f1565b94506001821660008114611328576001811461133a5761136d565b60ff198316865260208601935061136d565b611343856117d1565b60005b8381101561136557815481890152600182019150602081019050611346565b808801955050505b50505092915050565b6000611383601b836117f1565b915061138e82611b3a565b602082019050919050565b60006113a66030836117f1565b91506113b182611b63565b604082019050919050565b60006113c96013836117f1565b91506113d482611bb2565b602082019050919050565b60006113ec6019836117f1565b91506113f782611bdb565b602082019050919050565b600061140f6023836117f1565b915061141a82611c04565b604082019050919050565b61142e816118ec565b82525050565b60006020820190506114496000830184611272565b92915050565b600061014082019050611465600083018d611272565b611472602083018c611425565b61147f604083018b611425565b61148c606083018a611425565b6114996080830189611425565b6114a660a0830188611425565b81810360c08301526114b881876112bd565b905081810360e08301526114cc81866112bd565b90506114dc61010083018561129f565b6114ea610120830184611425565b9b9a5050505050505050505050565b600060408201905061150e6000830185611281565b61151b6020830184611425565b9392505050565b60006060820190506115376000830186611281565b6115446020830185611425565b6115516040830184611425565b949350505050565b600060208201905061156e600083018461129f565b92915050565b6000602082019050818103600083015261158e81846112bd565b905092915050565b600060a08201905081810360008301526115b081886112bd565b90506115bf6020830187611425565b6115cc6040830186611425565b6115d96060830185611290565b6115e66080830184611272565b9695505050505050565b6000602082019050818103600083015261160981611376565b9050919050565b6000602082019050818103600083015261162981611399565b9050919050565b60006020820190508181036000830152611649816113bc565b9050919050565b60006020820190508181036000830152611669816113df565b9050919050565b6000602082019050818103600083015261168981611402565b9050919050565b60006020820190506116a56000830184611425565b92915050565b600060c0820190506116c06000830189611425565b81810360208301526116d281886112bd565b90506116e16040830187611425565b6116ee60608301866112ae565b6116fb6080830185611290565b61170860a0830184611263565b979650505050505050565b600060c0820190506117286000830189611425565b818103602083015261173a81886112f6565b90506117496040830187611425565b6117566060830186611425565b6117636080830185611290565b61177060a0830184611263565b979650505050505050565b6000611785611796565b905061179182826119c4565b919050565b6000604051905090565b600067ffffffffffffffff8211156117bb576117ba611afa565b5b6117c482611b29565b9050602081019050919050565b60008190508160005260206000209050919050565b600081519050919050565b600082825260208201905092915050565b600061180d826118ec565b9150611818836118ec565b9250827fffffffffffffffffffffffffffffffffffffffffffffffffffffffffffffffff0382111561184d5761184c611a3e565b5b828201905092915050565b6000611863826118ec565b915061186e836118ec565b92508261187e5761187d611a6d565b5b828204905092915050565b6000611894826118cc565b9050919050565b60006118a6826118cc565b9050919050565b60008115159050919050565b60008190506118c782611c53565b919050565b600073ffffffffffffffffffffffffffffffffffffffff82169050919050565b6000819050919050565b60006119018261192c565b9050919050565b6000611913826118b9565b9050919050565b6000611925826118ec565b9050919050565b60006119378261193e565b9050919050565b6000611949826118cc565b9050919050565b82818337600083830152505050565b60005b8381101561197d578082015181840152602081019050611962565b8381111561198c576000848401525b50505050565b600060028204905060018216806119aa57607f821691505b602082108114156119be576119bd611acb565b5b50919050565b6119cd82611b29565b810181811067ffffffffffffffff821117156119ec576119eb611afa565b5b80604052505050565b6000611a00826118ec565b91507fffffffffffffffffffffffffffffffffffffffffffffffffffffffffffffffff821415611a3357611a32611a3e565b5b600182019050919050565b7f4e487b7100000000000000000000000000000000000000000000000000000000600052601160045260246000fd5b7f4e487b7100000000000000000000000000000000000000000000000000000000600052601260045260246000fd5b7f4e487b7100000000000000000000000000000000000000000000000000000000600052602160045260246000fd5b7f4e487b7100000000000000000000000000000000000000000000000000000000600052602260045260246000fd5b7f4e487b7100000000000000000000000000000000000000000000000000000000600052604160045260246000fd5b6000601f19601f8301169050919050565b7f4f6e6c7920636f6e7472696275746f722063616e20766f746520210000000000600082015250565b7f596f7520646f6e7420686176652061636365737320746f20706572666f726d2060008201527f74686973206f7065726174696f6e202100000000000000000000000000000000602082015250565b7f596f7520616c726561647920766f746564202100000000000000000000000000600082015250565b7f5265717565737420616c726561647920636f6d706c6574656400000000000000600082015250565b7f496e73756666696369656e7420766f74657320666f722074686973207265717560008201527f6573740000000000000000000000000000000000000000000000000000000000602082015250565b60038110611c6457611c63611a9c565b5b50565b611c7081611889565b8114611c7b57600080fd5b50565b611c878161189b565b8114611c9257600080fd5b50565b611c9e816118ec565b8114611ca957600080fd5b5056fea264697066735822122079bb514aec52a1b9f07927dfe030cb090078ebee400900ea93d833a4af93770964736f6c63430008040033",
  "linkReferences": {},
  "deployedLinkReferences": {}
}