{
  "_format": "hh-sol-artifact-1",
  "contractName": "Project",
  "sourceName": "contracts/Project.sol",
  "abi": [
    {
      "inputs": [
        {
          "internalType": "address",
          "name": "_creator",
          "type": "address"
        },
        {
          "internalType": "uint256",
          "name": "_minimumContribution",
          "type": "uint256"
        },
        {
          "internalType": "uint256",
          "name": "_deadline",
          "type": "uint256"
        },
        {
          "internalType": "uint256",
          "name": "_targetContribution",
          "type": "uint256"
        },
        {
          "internalType": "string",
          "name": "_projectTitle",
          "type": "string"
        },
        {
          "internalType": "string",
          "name": "_projectDes",
          "type": "string"
        }
      ],
      "stateMutability": "nonpayable",
      "type": "constructor"
    },
    {
      "anonymous": false,
      "inputs": [
        {
          "indexed": false,
          "internalType": "uint256",
          "name": "requestId",
          "type": "uint256"
        },
        {
          "indexed": false,
          "internalType": "string",
          "name": "description",
          "type": "string"
        },
        {
          "indexed": false,
          "internalType": "uint256",
          "name": "amount",
          "type": "uint256"
        },
        {
          "indexed": false,
          "internalType": "uint256",
          "name": "yesVotes",
          "type": "uint256"
        },
        {
          "indexed": false,
          "internalType": "uint256",
          "name": "noVotes",
          "type": "uint256"
        },
        {
          "indexed": false,
          "internalType": "bool",
          "name": "isCompleted",
          "type": "bool"
        },
        {
          "indexed": false,
          "internalType": "address",
          "name": "reciptent",
          "type": "address"
        }
      ],
      "name": "AmountWithdrawSuccessful",
      "type": "event"
    },
    {
      "anonymous": false,
      "inputs": [
        {
          "indexed": false,
          "internalType": "address",
          "name": "contributor",
          "type": "address"
        },
        {
          "indexed": false,
          "internalType": "enum Project.State",
          "name": "state",
          "type": "uint8"
        }
      ],
      "name": "Expired",
      "type": "event"
    },
    {
      "anonymous": false,
      "inputs": [
        {
          "indexed": false,
          "internalType": "address",
          "name": "contributor",
          "type": "address"
        },
        {
          "indexed": false,
          "internalType": "uint256",
          "name": "amount",
          "type": "uint256"
        },
        {
          "indexed": false,
          "internalType": "uint256",
          "name": "currentTotal",
          "type": "uint256"
        }
      ],
      "name": "FundingReceived",
      "type": "event"
    },
    {
      "anonymous": false,
      "inputs": [
        {
          "indexed": false,
          "internalType": "address",
          "name": "contributor",
          "type": "address"
        },
        {
          "indexed": false,
          "internalType": "uint256",
          "name": "amount",
          "type": "uint256"
        }
      ],
      "name": "Refund",
      "type": "event"
    },
    {
      "anonymous": false,
      "inputs": [
        {
          "indexed": false,
          "internalType": "uint256",
          "name": "requestId",
          "type": "uint256"
        },
        {
          "indexed": false,
          "internalType": "string",
          "name": "description",
          "type": "string"
        },
        {
          "indexed": false,
          "internalType": "uint256",
          "name": "amount",
          "type": "uint256"
        },
        {
          "indexed": false,
          "internalType": "uint256",
          "name": "yesVotes",
          "type": "uint256"
        },
        {
          "indexed": false,
          "internalType": "uint256",
          "name": "noVotes",
          "type": "uint256"
        },
        {
          "indexed": false,
          "internalType": "bool",
          "name": "isCompleted",
          "type": "bool"
        },
        {
          "indexed": false,
          "internalType": "address",
          "name": "reciptent",
          "type": "address"
        }
      ],
      "name": "WithdrawRequestCreated",
      "type": "event"
    },
    {
      "anonymous": false,
      "inputs": [
        {
          "indexed": false,
          "internalType": "address",
          "name": "voter",
          "type": "address"
        },
        {
          "indexed": false,
          "internalType": "uint256",
          "name": "totalVote",
          "type": "uint256"
        }
      ],
      "name": "WithdrawVote",
      "type": "event"
    },
    {
      "inputs": [
        {
          "internalType": "address",
          "name": "_contributor",
          "type": "address"
        }
      ],
      "name": "contribute",
      "outputs": [],
      "stateMutability": "payable",
      "type": "function"
    },
    {
      "inputs": [
        {
          "internalType": "address",
          "name": "",
          "type": "address"
        }
      ],
      "name": "contributors",
      "outputs": [
        {
          "internalType": "uint256",
          "name": "",
          "type": "uint256"
        }
      ],
      "stateMutability": "view",
      "type": "function"
    },
    {
      "inputs": [
        {
          "internalType": "string",
          "name": "_description",
          "type": "string"
        },
        {
          "internalType": "uint256",
          "name": "_amount",
          "type": "uint256"
        },
        {
          "internalType": "address payable",
          "name": "_reciptent",
          "type": "address"
        }
      ],
      "name": "createWithdrawRequest",
      "outputs": [],
      "stateMutability": "nonpayable",
      "type": "function"
    },
    {
      "inputs": [],
      "name": "creator",
      "outputs": [
        {
          "internalType": "address payable",
          "name": "",
          "type": "address"
        }
      ],
      "stateMutability": "view",
      "type": "function"
    },
    {
      "inputs": [],
      "name": "deadline",
      "outputs": [
        {
          "internalType": "uint256",
          "name": "",
          "type": "uint256"
        }
      ],
      "stateMutability": "view",
      "type": "function"
    },
    {
      "inputs": [],
      "name": "getContractBalance",
      "outputs": [
        {
          "internalType": "uint256",
          "name": "",
          "type": "uint256"
        }
      ],
      "stateMutability": "view",
      "type": "function"
    },
    {
      "inputs": [],
      "name": "getProjectDetails",
      "outputs": [
        {
          "internalType": "address payable",
          "name": "projectStarter",
          "type": "address"
        },
        {
          "internalType": "uint256",
          "name": "minContribution",
          "type": "uint256"
        },
        {
          "internalType": "uint256",
          "name": "projectDeadline",
          "type": "uint256"
        },
        {
          "internalType": "uint256",
          "name": "goalAmount",
          "type": "uint256"
        },
        {
          "internalType": "uint256",
          "name": "completedTime",
          "type": "uint256"
        },
        {
          "internalType": "uint256",
          "name": "currentAmount",
          "type": "uint256"
        },
        {
          "internalType": "string",
          "name": "title",
          "type": "string"
        },
        {
          "internalType": "string",
          "name": "desc",
          "type": "string"
        },
        {
          "internalType": "enum Project.State",
          "name": "currentState",
          "type": "uint8"
        },
        {
          "internalType": "uint256",
          "name": "balance",
          "type": "uint256"
        }
      ],
      "stateMutability": "view",
      "type": "function"
    },
    {
      "inputs": [],
      "name": "getTrustees",
      "outputs": [
        {
          "internalType": "address[]",
          "name": "",
          "type": "address[]"
        }
      ],
      "stateMutability": "view",
      "type": "function"
    },
    {
      "inputs": [],
      "name": "minimumContribution",
      "outputs": [
        {
          "internalType": "uint256",
          "name": "",
          "type": "uint256"
        }
      ],
      "stateMutability": "view",
      "type": "function"
    },
    {
      "inputs": [],
      "name": "noOfContributors",
      "outputs": [
        {
          "internalType": "uint256",
          "name": "",
          "type": "uint256"
        }
      ],
      "stateMutability": "view",
      "type": "function"
    },
    {
      "inputs": [],
      "name": "numOfWithdrawRequests",
      "outputs": [
        {
          "internalType": "uint256",
          "name": "",
          "type": "uint256"
        }
      ],
      "stateMutability": "view",
      "type": "function"
    },
    {
      "inputs": [],
      "name": "projectDes",
      "outputs": [
        {
          "internalType": "string",
          "name": "",
          "type": "string"
        }
      ],
      "stateMutability": "view",
      "type": "function"
    },
    {
      "inputs": [],
      "name": "projectTitle",
      "outputs": [
        {
          "internalType": "string",
          "name": "",
          "type": "string"
        }
      ],
      "stateMutability": "view",
      "type": "function"
    },
    {
      "inputs": [],
      "name": "raisedAmount",
      "outputs": [
        {
          "internalType": "uint256",
          "name": "",
          "type": "uint256"
        }
      ],
      "stateMutability": "view",
      "type": "function"
    },
    {
      "inputs": [],
      "name": "requestRefund",
      "outputs": [
        {
          "internalType": "bool",
          "name": "",
          "type": "bool"
        }
      ],
      "stateMutability": "nonpayable",
      "type": "function"
    },
    {
      "inputs": [],
      "name": "setStateExpired",
      "outputs": [],
      "stateMutability": "nonpayable",
      "type": "function"
    },
    {
      "inputs": [],
      "name": "state",
      "outputs": [
        {
          "internalType": "enum Project.State",
          "name": "",
          "type": "uint8"
        }
      ],
      "stateMutability": "view",
      "type": "function"
    },
    {
      "inputs": [],
      "name": "targetContribution",
      "outputs": [
        {
          "internalType": "uint256",
          "name": "",
          "type": "uint256"
        }
      ],
      "stateMutability": "view",
      "type": "function"
    },
    {
      "inputs": [
        {
          "internalType": "uint256",
          "name": "",
          "type": "uint256"
        }
      ],
      "name": "trustees",
      "outputs": [
        {
          "internalType": "address",
          "name": "",
          "type": "address"
        }
      ],
      "stateMutability": "view",
      "type": "function"
    },
    {
      "inputs": [
        {
          "internalType": "uint256",
          "name": "_requestId",
          "type": "uint256"
        },
        {
          "internalType": "bool",
          "name": "_vote",
          "type": "bool"
        }
      ],
      "name": "voteWithdrawRequest",
      "outputs": [],
      "stateMutability": "nonpayable",
      "type": "function"
    },
    {
      "inputs": [
        {
          "internalType": "uint256",
          "name": "_requestId",
          "type": "uint256"
        }
      ],
      "name": "withdrawRequestedAmount",
      "outputs": [],
      "stateMutability": "nonpayable",
      "type": "function"
    },
    {
      "inputs": [
        {
          "internalType": "uint256",
          "name": "",
          "type": "uint256"
        }
      ],
      "name": "withdrawRequests",
      "outputs": [
        {
          "internalType": "string",
          "name": "description",
          "type": "string"
        },
        {
          "internalType": "uint256",
          "name": "amount",
          "type": "uint256"
        },
        {
          "internalType": "uint256",
          "name": "yesVotes",
          "type": "uint256"
        },
        {
          "internalType": "uint256",
          "name": "noVotes",
          "type": "uint256"
        },
        {
          "internalType": "bool",
          "name": "isCompleted",
          "type": "bool"
        },
        {
          "internalType": "address payable",
          "name": "reciptent",
          "type": "address"
        }
      ],
      "stateMutability": "view",
      "type": "function"
    }
  ],
  "bytecode": "0x60806040526000600960006101000a81548160ff0219169083600281111562000051577f4e487b7100000000000000000000000000000000000000000000000000000000600052602160045260246000fd5b02179055506000600c553480156200006857600080fd5b5060405162002be338038062002be383398181016040528101906200008e919062000482565b856000806101000a81548173ffffffffffffffffffffffffffffffffffffffff021916908373ffffffffffffffffffffffffffffffffffffffff1602179055508460028190555083600381905550826004819055508160079080519060200190620000fb929190620002a3565b50806008908051906020019062000114929190620002a3565b5060006005819055506040518060a001604052807304fb8aa93070ccb375eca12e98d6a995555e201773ffffffffffffffffffffffffffffffffffffffff1673ffffffffffffffffffffffffffffffffffffffff16815260200173e0b0d918dcefe0f414b77a2d81850ea8776a34a973ffffffffffffffffffffffffffffffffffffffff1673ffffffffffffffffffffffffffffffffffffffff16815260200173ba83d2d5f76f34d0592452d3441902016878cb1a73ffffffffffffffffffffffffffffffffffffffff1673ffffffffffffffffffffffffffffffffffffffff16815260200173cff2ee28902259e8d00e1198e5565eb946f2a89773ffffffffffffffffffffffffffffffffffffffff1673ffffffffffffffffffffffffffffffffffffffff16815260200173316fd248cef6aa4d17267cf2b8f2065ba71feb7f73ffffffffffffffffffffffffffffffffffffffff1673ffffffffffffffffffffffffffffffffffffffff1681525060019060056200029692919062000334565b505050505050506200072c565b828054620002b1906200061d565b90600052602060002090601f016020900481019282620002d5576000855562000321565b82601f10620002f057805160ff191683800117855562000321565b8280016001018555821562000321579182015b828111156200032057825182559160200191906001019062000303565b5b509050620003309190620003c3565b5090565b828054828255906000526020600020908101928215620003b0579160200282015b82811115620003af5782518260006101000a81548173ffffffffffffffffffffffffffffffffffffffff021916908373ffffffffffffffffffffffffffffffffffffffff1602179055509160200191906001019062000355565b5b509050620003bf9190620003c3565b5090565b5b80821115620003de576000816000905550600101620003c4565b5090565b6000620003f9620003f38462000573565b6200054a565b9050828152602081018484840111156200041257600080fd5b6200041f848285620005e7565b509392505050565b6000815190506200043881620006f8565b92915050565b600082601f8301126200045057600080fd5b815162000462848260208601620003e2565b91505092915050565b6000815190506200047c8162000712565b92915050565b60008060008060008060c087890312156200049c57600080fd5b6000620004ac89828a0162000427565b9650506020620004bf89828a016200046b565b9550506040620004d289828a016200046b565b9450506060620004e589828a016200046b565b935050608087015167ffffffffffffffff8111156200050357600080fd5b6200051189828a016200043e565b92505060a087015167ffffffffffffffff8111156200052f57600080fd5b6200053d89828a016200043e565b9150509295509295509295565b60006200055662000569565b905062000564828262000653565b919050565b6000604051905090565b600067ffffffffffffffff821115620005915762000590620006b8565b5b6200059c82620006e7565b9050602081019050919050565b6000620005b682620005bd565b9050919050565b600073ffffffffffffffffffffffffffffffffffffffff82169050919050565b6000819050919050565b60005b8381101562000607578082015181840152602081019050620005ea565b8381111562000617576000848401525b50505050565b600060028204905060018216806200063657607f821691505b602082108114156200064d576200064c62000689565b5b50919050565b6200065e82620006e7565b810181811067ffffffffffffffff8211171562000680576200067f620006b8565b5b80604052505050565b7f4e487b7100000000000000000000000000000000000000000000000000000000600052602260045260246000fd5b7f4e487b7100000000000000000000000000000000000000000000000000000000600052604160045260246000fd5b6000601f19601f8301169050919050565b6200070381620005a9565b81146200070f57600080fd5b50565b6200071d81620005dd565b81146200072957600080fd5b50565b6124a7806200073c6000396000f3fe6080604052600436106101355760003560e01c8063a46752ae116100ab578063c3e20c9f1161006f578063c3e20c9f14610412578063c4f276d41461043d578063c59ee1dc14610466578063d5cef13314610491578063e85001e8146104bc578063ff3a9c7e146104d357610135565b8063a46752ae1461033d578063b40141bf14610366578063b82c86d614610391578063beffaf09146103bc578063c19d93fb146103e757610135565b80636f9fb98a116100fd5780636f9fb98a14610223578063717d63a41461024e57806373e888fd1461028b578063752e19f9146102a7578063937e09b1146102d0578063992a7dfb146102fb57610135565b806302d05d3f1461013a57806303c29d58146101655780631f6d49421461019057806329dcb0cf146101cd5780634e260f6f146101f8575b600080fd5b34801561014657600080fd5b5061014f610507565b60405161015c9190611b33565b60405180910390f35b34801561017157600080fd5b5061017a61052b565b6040516101879190611cb0565b60405180910390f35b34801561019c57600080fd5b506101b760048036038101906101b291906117aa565b6105b9565b6040516101c49190611dfa565b60405180910390f35b3480156101d957600080fd5b506101e26105d1565b6040516101ef9190611dfa565b60405180910390f35b34801561020457600080fd5b5061020d6105d7565b60405161021a9190611dfa565b60405180910390f35b34801561022f57600080fd5b506102386105dd565b6040516102459190611dfa565b60405180910390f35b34801561025a57600080fd5b506102756004803603810190610270919061183a565b6105e5565b6040516102829190611b18565b60405180910390f35b6102a560048036038101906102a091906117aa565b610624565b005b3480156102b357600080fd5b506102ce60048036038101906102c9919061183a565b6107c4565b005b3480156102dc57600080fd5b506102e5610ad6565b6040516102f29190611dfa565b60405180910390f35b34801561030757600080fd5b50610322600480360381019061031d919061183a565b610adc565b60405161033496959493929190611cd2565b60405180910390f35b34801561034957600080fd5b50610364600480360381019061035f91906117d3565b610bcd565b005b34801561037257600080fd5b5061037b610d77565b6040516103889190611dfa565b60405180910390f35b34801561039d57600080fd5b506103a6610d7d565b6040516103b39190611dfa565b60405180910390f35b3480156103c857600080fd5b506103d1610d83565b6040516103de9190611c58565b60405180910390f35b3480156103f357600080fd5b506103fc610e11565b6040516104099190611c95565b60405180910390f35b34801561041e57600080fd5b50610427610e24565b6040516104349190611cb0565b60405180910390f35b34801561044957600080fd5b50610464600480360381019061045f9190611863565b610eb2565b005b34801561047257600080fd5b5061047b61114a565b6040516104889190611dfa565b60405180910390f35b34801561049d57600080fd5b506104a6611150565b6040516104b39190611c7a565b60405180910390f35b3480156104c857600080fd5b506104d16112ab565b005b3480156104df57600080fd5b506104e86112fe565b6040516104fe9a99989796959493929190611b4e565b60405180910390f35b60008054906101000a900473ffffffffffffffffffffffffffffffffffffffff1681565b6008805461053890612120565b80601f016020809104026020016040519081016040528092919081815260200182805461056490612120565b80156105b15780601f10610586576101008083540402835291602001916105b1565b820191906000526020600020905b81548152906001019060200180831161059457829003601f168201915b505050505081565b600a6020528060005260406000206000915090505481565b60035481565b60065481565b600047905090565b600181815481106105f557600080fd5b906000526020600020016000915054906101000a900473ffffffffffffffffffffffffffffffffffffffff1681565b6001600281111561065e577f4e487b7100000000000000000000000000000000000000000000000000000000600052602160045260246000fd5b600960009054906101000a900460ff1660028111156106a6577f4e487b7100000000000000000000000000000000000000000000000000000000600052602160045260246000fd5b146107c1576000600a60008373ffffffffffffffffffffffffffffffffffffffff1673ffffffffffffffffffffffffffffffffffffffff16815260200190815260200160002054141561070c576006600081548092919061070690612183565b91905055505b34600a60008373ffffffffffffffffffffffffffffffffffffffff1673ffffffffffffffffffffffffffffffffffffffff168152602001908152602001600020600082825461075b9190611fc1565b9250508190555034600560008282546107749190611fc1565b925050819055507f5cdc4ab8d637538ead6cc1904d4160343656c8c82bd266635cfd31ac008fffe081346005546040516107b093929190611c21565b60405180910390a16107c0611482565b5b50565b60008054906101000a900473ffffffffffffffffffffffffffffffffffffffff1673ffffffffffffffffffffffffffffffffffffffff163373ffffffffffffffffffffffffffffffffffffffff1614610852576040517f08c379a000000000000000000000000000000000000000000000000000000000815260040161084990611d5a565b60405180910390fd5b6000600b60008381526020019081526020016000209050600015158160050160009054906101000a900460ff161515146108c1576040517f08c379a00000000000000000000000000000000000000000000000000000000081526004016108b890611dba565b60405180910390fd5b6000600390506108d083611542565b61090f576040517f08c379a000000000000000000000000000000000000000000000000000000000815260040161090690611dda565b60405180910390fd5b80826002015410610a22578160050160019054906101000a900473ffffffffffffffffffffffffffffffffffffffff1673ffffffffffffffffffffffffffffffffffffffff166108fc83600101549081150290604051600060405180830381858888f19350505050158015610988573d6000803e3d6000fd5b5060018260050160006101000a81548160ff0219169083151502179055507f7a5218350187d3ab901ae3c2001a4348ce5a2089ac30ce35d2fc55b53feac2a5838360000184600101548560020154866003015460018860050160019054906101000a900473ffffffffffffffffffffffffffffffffffffffff16604051610a159796959493929190611e8b565b60405180910390a1610ad1565b816002015482600301541115610ad057610a3a611150565b5060018260050160006101000a81548160ff0219169083151502179055507f7a5218350187d3ab901ae3c2001a4348ce5a2089ac30ce35d2fc55b53feac2a5838360000184600101548560020154866003015460008860050160019054906101000a900473ffffffffffffffffffffffffffffffffffffffff16604051610ac79796959493929190611e8b565b60405180910390a15b5b505050565b60025481565b600b602052806000526040600020600091509050806000018054610aff90612120565b80601f0160208091040260200160405190810160405280929190818152602001828054610b2b90612120565b8015610b785780601f10610b4d57610100808354040283529160200191610b78565b820191906000526020600020905b815481529060010190602001808311610b5b57829003601f168201915b5050505050908060010154908060020154908060030154908060050160009054906101000a900460ff16908060050160019054906101000a900473ffffffffffffffffffffffffffffffffffffffff16905086565b60008054906101000a900473ffffffffffffffffffffffffffffffffffffffff1673ffffffffffffffffffffffffffffffffffffffff163373ffffffffffffffffffffffffffffffffffffffff1614610c5b576040517f08c379a0000000000000000000000000000000000000000000000000000000008152600401610c5290611d5a565b60405180910390fd5b6000600b6000600c5481526020019081526020016000209050600c6000815480929190610c8790612183565b919050555083816000019080519060200190610ca492919061164b565b50828160010181905550600081600201819055506000816003018190555060008160050160006101000a81548160ff021916908315150217905550818160050160016101000a81548173ffffffffffffffffffffffffffffffffffffffff021916908373ffffffffffffffffffffffffffffffffffffffff1602179055507f3009567e0613f3581563a052fea56298aca1363831103cf6f1cbb8bf5ae122f3600c548585600080600088604051610d619796959493929190611e15565b60405180910390a1610d71611482565b50505050565b600c5481565b60045481565b60606001805480602002602001604051908101604052809291908181526020018280548015610e0757602002820191906000526020600020905b8160009054906101000a900473ffffffffffffffffffffffffffffffffffffffff1673ffffffffffffffffffffffffffffffffffffffff1681526020019060010190808311610dbd575b5050505050905090565b600960009054906101000a900460ff1681565b60078054610e3190612120565b80601f0160208091040260200160405190810160405280929190818152602001828054610e5d90612120565b8015610eaa5780601f10610e7f57610100808354040283529160200191610eaa565b820191906000526020600020905b815481529060010190602001808311610e8d57829003601f168201915b505050505081565b6000805b600180549050811015610f77573373ffffffffffffffffffffffffffffffffffffffff1660018281548110610f14577f4e487b7100000000000000000000000000000000000000000000000000000000600052603260045260246000fd5b9060005260206000200160009054906101000a900473ffffffffffffffffffffffffffffffffffffffff1673ffffffffffffffffffffffffffffffffffffffff161415610f645760019150610f77565b8080610f6f90612183565b915050610eb6565b5080610fb8576040517f08c379a0000000000000000000000000000000000000000000000000000000008152600401610faf90611d3a565b60405180910390fd5b6000600b600085815260200190815260200160002090508060040160003373ffffffffffffffffffffffffffffffffffffffff1673ffffffffffffffffffffffffffffffffffffffff16815260200190815260200160002060009054906101000a900460ff161561105e576040517f08c379a000000000000000000000000000000000000000000000000000000000815260040161105590611d9a565b60405180910390fd5b82156110835780600201600081548092919061107990612183565b919050555061109e565b80600301600081548092919061109890612183565b91905055505b60018160040160003373ffffffffffffffffffffffffffffffffffffffff1673ffffffffffffffffffffffffffffffffffffffff16815260200190815260200160002060006101000a81548160ff0219169083151502179055507fa2925e4595bf873fa82c22a1a89809777347023bf2b502d32710157a5eb8199c338260030154836002015461112e9190611fc1565b60405161113c929190611bf8565b60405180910390a150505050565b60055481565b600080600a60003373ffffffffffffffffffffffffffffffffffffffff1673ffffffffffffffffffffffffffffffffffffffff16815260200190815260200160002054116111d3576040517f08c379a00000000000000000000000000000000000000000000000000000000081526004016111ca90611d7a565b60405180910390fd5b60003390508073ffffffffffffffffffffffffffffffffffffffff166108fc600a60003373ffffffffffffffffffffffffffffffffffffffff1673ffffffffffffffffffffffffffffffffffffffff168152602001908152602001600020549081150290604051600060405180830381858888f1935050505015801561125d573d6000803e3d6000fd5b506000600a60003373ffffffffffffffffffffffffffffffffffffffff1673ffffffffffffffffffffffffffffffffffffffff16815260200190815260200160002081905550600191505090565b6001600960006101000a81548160ff021916908360028111156112f7577f4e487b7100000000000000000000000000000000000000000000000000000000600052602160045260246000fd5b0217905550565b60008060008060008060608060008060008054906101000a900473ffffffffffffffffffffffffffffffffffffffff16995060025498506003549750600454965042955060055494506007805461135490612120565b80601f016020809104026020016040519081016040528092919081815260200182805461138090612120565b80156113cd5780601f106113a2576101008083540402835291602001916113cd565b820191906000526020600020905b8154815290600101906020018083116113b057829003601f168201915b50505050509350600880546113e190612120565b80601f016020809104026020016040519081016040528092919081815260200182805461140d90612120565b801561145a5780601f1061142f5761010080835404028352916020019161145a565b820191906000526020600020905b81548152906001019060200180831161143d57829003601f168201915b50505050509250600960009054906101000a900460ff16915047905090919293949596979899565b600454600554106114e3576002600960006101000a81548160ff021916908360028111156114d9577f4e487b7100000000000000000000000000000000000000000000000000000000600052602160045260246000fd5b0217905550611540565b60035442111561153f576001600960006101000a81548160ff02191690836002811115611539577f4e487b7100000000000000000000000000000000000000000000000000000000600052602160045260246000fd5b02179055505b5b565b600080600b6000848152602001908152602001600020905060005b60018054905081101561163f57816004016000600183815481106115aa577f4e487b7100000000000000000000000000000000000000000000000000000000600052603260045260246000fd5b9060005260206000200160009054906101000a900473ffffffffffffffffffffffffffffffffffffffff1673ffffffffffffffffffffffffffffffffffffffff1673ffffffffffffffffffffffffffffffffffffffff16815260200190815260200160002060009054906101000a900460ff1661162c57600092505050611646565b808061163790612183565b91505061155d565b5060019150505b919050565b82805461165790612120565b90600052602060002090601f01602090048101928261167957600085556116c0565b82601f1061169257805160ff19168380011785556116c0565b828001600101855582156116c0579182015b828111156116bf5782518255916020019190600101906116a4565b5b5090506116cd91906116d1565b5090565b5b808211156116ea5760008160009055506001016116d2565b5090565b60006117016116fc84611f26565b611f01565b90508281526020810184848401111561171957600080fd5b6117248482856120de565b509392505050565b60008135905061173b81612415565b92915050565b6000813590506117508161242c565b92915050565b60008135905061176581612443565b92915050565b600082601f83011261177c57600080fd5b813561178c8482602086016116ee565b91505092915050565b6000813590506117a48161245a565b92915050565b6000602082840312156117bc57600080fd5b60006117ca8482850161172c565b91505092915050565b6000806000606084860312156117e857600080fd5b600084013567ffffffffffffffff81111561180257600080fd5b61180e8682870161176b565b935050602061181f86828701611795565b925050604061183086828701611741565b9150509250925092565b60006020828403121561184c57600080fd5b600061185a84828501611795565b91505092915050565b6000806040838503121561187657600080fd5b600061188485828601611795565b925050602061189585828601611756565b9150509250929050565b60006118ab83836118d5565b60208301905092915050565b6118c081612084565b82525050565b6118cf81612029565b82525050565b6118de81612017565b82525050565b6118ed81612017565b82525050565b60006118fe82611f7c565b6119088185611f9f565b935061191383611f57565b8060005b8381101561194457815161192b888261189f565b975061193683611f92565b925050600181019050611917565b5085935050505092915050565b61195a8161203b565b82525050565b61196981612096565b82525050565b611978816120a8565b82525050565b600061198982611f87565b6119938185611fb0565b93506119a38185602086016120ed565b6119ac81612288565b840191505092915050565b600081546119c481612120565b6119ce8186611fb0565b945060018216600081146119e957600181146119fb57611a2e565b60ff1983168652602086019350611a2e565b611a0485611f67565b60005b83811015611a2657815481890152600182019150602081019050611a07565b808801955050505b50505092915050565b6000611a44602883611fb0565b9150611a4f82612299565b604082019050919050565b6000611a67602f83611fb0565b9150611a72826122e8565b604082019050919050565b6000611a8a602583611fb0565b9150611a9582612337565b604082019050919050565b6000611aad601283611fb0565b9150611ab882612386565b602082019050919050565b6000611ad0601983611fb0565b9150611adb826123af565b602082019050919050565b6000611af3601b83611fb0565b9150611afe826123d8565b602082019050919050565b611b128161207a565b82525050565b6000602082019050611b2d60008301846118e4565b92915050565b6000602082019050611b4860008301846118c6565b92915050565b600061014082019050611b64600083018d6118c6565b611b71602083018c611b09565b611b7e604083018b611b09565b611b8b606083018a611b09565b611b986080830189611b09565b611ba560a0830188611b09565b81810360c0830152611bb7818761197e565b905081810360e0830152611bcb818661197e565b9050611bdb610100830185611960565b611be9610120830184611b09565b9b9a5050505050505050505050565b6000604082019050611c0d60008301856118e4565b611c1a6020830184611b09565b9392505050565b6000606082019050611c3660008301866118e4565b611c436020830185611b09565b611c506040830184611b09565b949350505050565b60006020820190508181036000830152611c7281846118f3565b905092915050565b6000602082019050611c8f6000830184611951565b92915050565b6000602082019050611caa6000830184611960565b92915050565b60006020820190508181036000830152611cca818461197e565b905092915050565b600060c0820190508181036000830152611cec818961197e565b9050611cfb6020830188611b09565b611d086040830187611b09565b611d156060830186611b09565b611d226080830185611951565b611d2f60a08301846118c6565b979650505050505050565b60006020820190508181036000830152611d5381611a37565b9050919050565b60006020820190508181036000830152611d7381611a5a565b9050919050565b60006020820190508181036000830152611d9381611a7d565b9050919050565b60006020820190508181036000830152611db381611aa0565b9050919050565b60006020820190508181036000830152611dd381611ac3565b9050919050565b60006020820190508181036000830152611df381611ae6565b9050919050565b6000602082019050611e0f6000830184611b09565b92915050565b600060e082019050611e2a600083018a611b09565b8181036020830152611e3c818961197e565b9050611e4b6040830188611b09565b611e58606083018761196f565b611e65608083018661196f565b611e7260a0830185611951565b611e7f60c08301846118b7565b98975050505050505050565b600060e082019050611ea0600083018a611b09565b8181036020830152611eb281896119b7565b9050611ec16040830188611b09565b611ece6060830187611b09565b611edb6080830186611b09565b611ee860a0830185611951565b611ef560c08301846118b7565b98975050505050505050565b6000611f0b611f1c565b9050611f178282612152565b919050565b6000604051905090565b600067ffffffffffffffff821115611f4157611f40612259565b5b611f4a82612288565b9050602081019050919050565b6000819050602082019050919050565b60008190508160005260206000209050919050565b600081519050919050565b600081519050919050565b6000602082019050919050565b600082825260208201905092915050565b600082825260208201905092915050565b6000611fcc8261207a565b9150611fd78361207a565b9250827fffffffffffffffffffffffffffffffffffffffffffffffffffffffffffffffff0382111561200c5761200b6121cc565b5b828201905092915050565b60006120228261205a565b9050919050565b60006120348261205a565b9050919050565b60008115159050919050565b600081905061205582612401565b919050565b600073ffffffffffffffffffffffffffffffffffffffff82169050919050565b6000819050919050565b600061208f826120ba565b9050919050565b60006120a182612047565b9050919050565b60006120b38261207a565b9050919050565b60006120c5826120cc565b9050919050565b60006120d78261205a565b9050919050565b82818337600083830152505050565b60005b8381101561210b5780820151818401526020810190506120f0565b8381111561211a576000848401525b50505050565b6000600282049050600182168061213857607f821691505b6020821081141561214c5761214b61222a565b5b50919050565b61215b82612288565b810181811067ffffffffffffffff8211171561217a57612179612259565b5b80604052505050565b600061218e8261207a565b91507fffffffffffffffffffffffffffffffffffffffffffffffffffffffffffffffff8214156121c1576121c06121cc565b5b600182019050919050565b7f4e487b7100000000000000000000000000000000000000000000000000000000600052601160045260246000fd5b7f4e487b7100000000000000000000000000000000000000000000000000000000600052602160045260246000fd5b7f4e487b7100000000000000000000000000000000000000000000000000000000600052602260045260246000fd5b7f4e487b7100000000000000000000000000000000000000000000000000000000600052604160045260246000fd5b6000601f19601f8301169050919050565b7f4f6e6c7920747275737465652063616e20706572666f726d2074686973206f7060008201527f65726174696f6e21000000000000000000000000000000000000000000000000602082015250565b7f596f7520646f6e7420686176652061636365737320746f20706572666f726d2060008201527f74686973206f7065726174696f6e210000000000000000000000000000000000602082015250565b7f596f7520646f6e74206861766520616e7920636f6e747269627574656420616d60008201527f6f756e7421000000000000000000000000000000000000000000000000000000602082015250565b7f596f7520616c726561647920766f746564210000000000000000000000000000600082015250565b7f5265717565737420616c726561647920636f6d706c6574656400000000000000600082015250565b7f4e6f7420616c6c207472757374656573206861766520766f7465640000000000600082015250565b60038110612412576124116121fb565b5b50565b61241e81612017565b811461242957600080fd5b50565b61243581612029565b811461244057600080fd5b50565b61244c8161203b565b811461245757600080fd5b50565b6124638161207a565b811461246e57600080fd5b5056fea2646970667358221220aa5a02aad6190dfba31bc30a32aeaab5b032002333cf538db111af96439c471064736f6c63430008040033",
  "linkReferences": {},
  "deployedLinkReferences": {}
}